{
  "address": "0x5dF066990F40B679C84F71846dBC404d83d2972b",
  "abi": [
    {
      "anonymous": false,
      "inputs": [
        {
          "indexed": false,
          "internalType": "uint256",
          "name": "idSampah",
          "type": "uint256"
        }
      ],
      "name": "DataDivalidasi",
      "type": "event"
    },
    {
      "anonymous": false,
      "inputs": [
        {
          "indexed": true,
          "internalType": "address",
          "name": "previousOwner",
          "type": "address"
        },
        {
          "indexed": true,
          "internalType": "address",
          "name": "newOwner",
          "type": "address"
        }
      ],
      "name": "OwnershipTransferred",
      "type": "event"
    },
    {
      "anonymous": false,
      "inputs": [
        {
          "indexed": false,
          "internalType": "address",
          "name": "userAddress",
          "type": "address"
        },
        {
          "indexed": false,
          "internalType": "uint256",
          "name": "idSampah",
          "type": "uint256"
        },
        {
          "indexed": false,
          "internalType": "string",
          "name": "jenisSampah",
          "type": "string"
        },
        {
          "indexed": false,
          "internalType": "uint256",
          "name": "berat",
          "type": "uint256"
        },
        {
          "indexed": false,
          "internalType": "uint256",
          "name": "waktu",
          "type": "uint256"
        },
        {
          "indexed": false,
          "internalType": "uint256[]",
          "name": "dropPoints",
          "type": "uint256[]"
        }
      ],
      "name": "SampahDikirimKeDropPointSelanjutnya",
      "type": "event"
    },
    {
      "anonymous": false,
      "inputs": [
        {
          "indexed": false,
          "internalType": "address",
          "name": "userAddress",
          "type": "address"
        },
        {
          "indexed": false,
          "internalType": "uint256",
          "name": "idSampah",
          "type": "uint256"
        },
        {
          "indexed": false,
          "internalType": "string",
          "name": "jenisSampah",
          "type": "string"
        },
        {
          "indexed": false,
          "internalType": "uint256",
          "name": "berat",
          "type": "uint256"
        },
        {
          "indexed": false,
          "internalType": "uint256",
          "name": "waktu",
          "type": "uint256"
        },
        {
          "indexed": false,
          "internalType": "uint256[]",
          "name": "dropPoints",
          "type": "uint256[]"
        }
      ],
      "name": "SampahDitambahkan",
      "type": "event"
    },
    {
      "anonymous": false,
      "inputs": [
        {
          "indexed": false,
          "internalType": "address",
          "name": "userAddress",
          "type": "address"
        },
        {
          "indexed": false,
          "internalType": "uint256",
          "name": "idSampah",
          "type": "uint256"
        },
        {
          "indexed": false,
          "internalType": "string",
          "name": "jenisSampah",
          "type": "string"
        },
        {
          "indexed": false,
          "internalType": "uint256",
          "name": "berat",
          "type": "uint256"
        },
        {
          "indexed": false,
          "internalType": "uint256",
          "name": "waktu",
          "type": "uint256"
        },
        {
          "indexed": false,
          "internalType": "uint256[]",
          "name": "dropPoints",
          "type": "uint256[]"
        }
      ],
      "name": "SampahDitambahkanKePenampung",
      "type": "event"
    },
    {
      "inputs": [],
      "name": "_checkOwner",
      "outputs": [],
      "stateMutability": "view",
      "type": "function"
    },
    {
      "inputs": [],
      "name": "_owner",
      "outputs": [
        {
          "internalType": "address",
          "name": "",
          "type": "address"
        }
      ],
      "stateMutability": "view",
      "type": "function"
    },
    {
      "inputs": [
        {
          "internalType": "uint256",
          "name": "_idSampah",
          "type": "uint256"
        }
      ],
      "name": "bersihkanDataSampah",
      "outputs": [],
      "stateMutability": "nonpayable",
      "type": "function"
    },
    {
      "inputs": [
        {
          "internalType": "uint256",
          "name": "",
          "type": "uint256"
        }
      ],
      "name": "dataPenampungan",
      "outputs": [
        {
          "internalType": "address",
          "name": "userAddress",
          "type": "address"
        },
        {
          "internalType": "string",
          "name": "namaPengguna",
          "type": "string"
        },
        {
          "internalType": "string",
          "name": "emailPengguna",
          "type": "string"
        },
        {
          "internalType": "uint256",
          "name": "idSampah",
          "type": "uint256"
        },
        {
          "internalType": "string",
          "name": "jenisSampah",
          "type": "string"
        },
        {
          "internalType": "uint256",
          "name": "berat",
          "type": "uint256"
        },
        {
          "internalType": "uint256",
          "name": "waktu",
          "type": "uint256"
        },
        {
          "internalType": "bool",
          "name": "sudahDivalidasi",
          "type": "bool"
        }
      ],
      "stateMutability": "view",
      "type": "function"
    },
    {
      "inputs": [
        {
          "internalType": "uint256",
          "name": "_idSampah",
          "type": "uint256"
        }
      ],
      "name": "getDataSampahById",
      "outputs": [
        {
          "components": [
            {
              "internalType": "address",
              "name": "userAddress",
              "type": "address"
            },
            {
              "internalType": "string",
              "name": "namaPengguna",
              "type": "string"
            },
            {
              "internalType": "string",
              "name": "emailPengguna",
              "type": "string"
            },
            {
              "internalType": "uint256",
              "name": "idSampah",
              "type": "uint256"
            },
            {
              "internalType": "string",
              "name": "jenisSampah",
              "type": "string"
            },
            {
              "internalType": "uint256",
              "name": "berat",
              "type": "uint256"
            },
            {
              "internalType": "uint256",
              "name": "waktu",
              "type": "uint256"
            },
            {
              "internalType": "uint256[]",
              "name": "dropPoints",
              "type": "uint256[]"
            }
          ],
          "internalType": "struct DropPointT.DataSampah",
          "name": "",
          "type": "tuple"
        }
      ],
      "stateMutability": "view",
      "type": "function"
    },
    {
      "inputs": [
        {
          "internalType": "string",
          "name": "_namaPengguna",
          "type": "string"
        },
        {
          "internalType": "string",
          "name": "_emailPengguna",
          "type": "string"
        },
        {
          "internalType": "string",
          "name": "_jenisSampah",
          "type": "string"
        },
        {
          "internalType": "uint256",
          "name": "_berat",
          "type": "uint256"
        },
        {
          "internalType": "uint256[]",
          "name": "_dropPoints",
          "type": "uint256[]"
        }
      ],
      "name": "inputDataPenampungan",
      "outputs": [],
      "stateMutability": "nonpayable",
      "type": "function"
    },
    {
      "inputs": [],
      "name": "jumlahsampah",
      "outputs": [
        {
          "internalType": "uint256",
          "name": "",
          "type": "uint256"
        }
      ],
      "stateMutability": "view",
      "type": "function"
    },
    {
      "inputs": [
        {
          "internalType": "uint256",
          "name": "_idSampah",
          "type": "uint256"
        }
      ],
      "name": "kirimKeDropPointSelanjutnya",
      "outputs": [],
      "stateMutability": "nonpayable",
      "type": "function"
    },
    {
      "inputs": [],
      "name": "owner",
      "outputs": [
        {
          "internalType": "address",
          "name": "",
          "type": "address"
        }
      ],
      "stateMutability": "view",
      "type": "function"
    },
    {
      "inputs": [
        {
          "internalType": "uint256",
          "name": "",
          "type": "uint256"
        }
      ],
      "name": "sampahList",
      "outputs": [
        {
          "internalType": "address",
          "name": "userAddress",
          "type": "address"
        },
        {
          "internalType": "string",
          "name": "namaPengguna",
          "type": "string"
        },
        {
          "internalType": "string",
          "name": "emailPengguna",
          "type": "string"
        },
        {
          "internalType": "uint256",
          "name": "idSampah",
          "type": "uint256"
        },
        {
          "internalType": "string",
          "name": "jenisSampah",
          "type": "string"
        },
        {
          "internalType": "uint256",
          "name": "berat",
          "type": "uint256"
        },
        {
          "internalType": "uint256",
          "name": "waktu",
          "type": "uint256"
        }
      ],
      "stateMutability": "view",
      "type": "function"
    },
    {
      "inputs": [
        {
          "internalType": "address",
          "name": "newOwner",
          "type": "address"
        }
      ],
      "name": "transferOwnership",
      "outputs": [],
      "stateMutability": "nonpayable",
      "type": "function"
    },
    {
      "inputs": [
        {
          "internalType": "uint256",
          "name": "_idSampah",
          "type": "uint256"
        }
      ],
      "name": "verifikasiDataSampah",
      "outputs": [],
      "stateMutability": "nonpayable",
      "type": "function"
    }
  ],
  "transactionHash": "0x3335a158ddd5742d043d752d73be05da286764a8ff9cfb2a246275c3017a137b",
  "args": [],
  "numDeployments": 1,
  "solcInputHash": "9b2003c9af1a485e5886ff8633445d8a",
  "bytecode": "0x60806040526001805534801561001457600080fd5b5061001e33610023565b610073565b600080546001600160a01b038381166001600160a01b0319831681178455604051919092169283917f8be0079c531659141344cd1fd0a4f28419497f9722a3daafe3b4186f6b6457e09190a35050565b611b12806100826000396000f3fe608060405234801561001057600080fd5b50600436106100b45760003560e01c80639b140ba8116100715780639b140ba81461015d578063ad0eb88614610170578063b2bdfa7b14610183578063e1d7e40c14610196578063f13636a6146101ac578063f2fde38b146101d357600080fd5b80634d74809e146100b957806353a72975146100ce5780635e88e11d146100d65780636bd15aeb146100ff5780637ce04214146101255780638da5cb5b14610138575b600080fd5b6100cc6100c73660046113f9565b6101e6565b005b6100cc610800565b6100e96100e43660046113f9565b61085c565b6040516100f69190611493565b60405180910390f35b61011261010d3660046113f9565b610b0d565b6040516100f6979695949392919061154b565b6100cc6101333660046113f9565b610cea565b6000546001600160a01b03165b6040516001600160a01b0390911681526020016100f6565b6100cc61016b366004611669565b610d71565b6100cc61017e3660046113f9565b610f05565b600054610145906001600160a01b031681565b61019e611078565b6040519081526020016100f6565b6101bf6101ba3660046113f9565b61109c565b6040516100f6989796959493929190611784565b6100cc6101e13660046117fa565b611284565b6101ee610800565b60008181526002602052604090206008015460ff161561024d5760405162461bcd60e51b81526020600482015260156024820152744461746120737564616820646976616c696461736960581b60448201526064015b60405180910390fd5b604080516101008101825260008381526002602081815293822080546001600160a01b031684529185905283526001018054919283019161028d9061182a565b80601f01602080910402602001604051908101604052809291908181526020018280546102b99061182a565b80156103065780601f106102db57610100808354040283529160200191610306565b820191906000526020600020905b8154815290600101906020018083116102e957829003601f168201915b505050505081526020016002600084815260200190815260200160002060020180546103319061182a565b80601f016020809104026020016040519081016040528092919081815260200182805461035d9061182a565b80156103aa5780601f1061037f576101008083540402835291602001916103aa565b820191906000526020600020905b81548152906001019060200180831161038d57829003601f168201915b505050505081526020018281526020016002600084815260200190815260200160002060040180546103db9061182a565b80601f01602080910402602001604051908101604052809291908181526020018280546104079061182a565b80156104545780601f1061042957610100808354040283529160200191610454565b820191906000526020600020905b81548152906001019060200180831161043757829003601f168201915b50505091835250506000838152600260208181526040808420600581015483870152600681015482870152938790529181526007909201805482518185028101850190935280835260609094019391929091908301828280156104d657602002820191906000526020600020905b8154815260200190600101908083116104c2575b5050509190925250506000828152600360209081526040909120825181546001600160a01b0319166001600160a01b0390911617815590820151600182019061051f90826118b3565b506040820151600282019061053490826118b3565b50606082015160038201556080820151600482019061055390826118b3565b5060a0820151600582015560c0820151600682015560e08201518051610583916007840191602090910190611345565b505050600081815260036020526040812060010180546105a29061182a565b9050116105f15760405162461bcd60e51b815260206004820152601760248201527f4e616d6120546964616b20426f6c6568204b6f736f6e670000000000000000006044820152606401610244565b6000818152600360205260408120600201805461060d9061182a565b90501161065c5760405162461bcd60e51b815260206004820152601860248201527f456d61696c20546964616b20426f6c6568204b6f736f6e6700000000000000006044820152606401610244565b6000818152600360205260409020600501546106c85760405162461bcd60e51b815260206004820152602560248201527f42657261742073616d706168206861727573206c656269682062657361722064604482015264061726920360dc1b6064820152608401610244565b600081815260036020526040812060040180546106e49061182a565b9050116107335760405162461bcd60e51b815260206004820152601f60248201527f4a656e69732073616d70616820746964616b20626f6c6568206b6f736f6e67006044820152606401610244565b60008181526002602052604090819020600801805460ff19166001179055517f9f81da346cbd8eaf6de96dc9bfb32263a1cf8376f7e7209899f851d54de6de65906107819083815260200190565b60405180910390a16000818152600260205260409081902080546005820154600683015493517fcbf69a5c8c460e4e72f038b0ae7b43036b6ecaa53b70f2b98efc9665cd24347a946107ec946001600160a01b039094169387936004820193909291600701906119a8565b60405180910390a16107fd81610cea565b50565b6000546001600160a01b0316331461085a5760405162461bcd60e51b815260206004820181905260248201527f4f776e61626c653a2063616c6c6572206973206e6f7420746865206f776e65726044820152606401610244565b565b6108ad60405180610100016040528060006001600160a01b03168152602001606081526020016060815260200160008152602001606081526020016000815260200160008152602001606081525090565b6000828152600360209081526040918290208251610100810190935280546001600160a01b0316835260018101805491928401916108ea9061182a565b80601f01602080910402602001604051908101604052809291908181526020018280546109169061182a565b80156109635780601f1061093857610100808354040283529160200191610963565b820191906000526020600020905b81548152906001019060200180831161094657829003601f168201915b5050505050815260200160028201805461097c9061182a565b80601f01602080910402602001604051908101604052809291908181526020018280546109a89061182a565b80156109f55780601f106109ca576101008083540402835291602001916109f5565b820191906000526020600020905b8154815290600101906020018083116109d857829003601f168201915b5050505050815260200160038201548152602001600482018054610a189061182a565b80601f0160208091040260200160405190810160405280929190818152602001828054610a449061182a565b8015610a915780601f10610a6657610100808354040283529160200191610a91565b820191906000526020600020905b815481529060010190602001808311610a7457829003601f168201915b50505050508152602001600582015481526020016006820154815260200160078201805480602002602001604051908101604052809291908181526020018280548015610afd57602002820191906000526020600020905b815481526020019060010190808311610ae9575b5050505050815250509050919050565b600360205260009081526040902080546001820180546001600160a01b039092169291610b399061182a565b80601f0160208091040260200160405190810160405280929190818152602001828054610b659061182a565b8015610bb25780601f10610b8757610100808354040283529160200191610bb2565b820191906000526020600020905b815481529060010190602001808311610b9557829003601f168201915b505050505090806002018054610bc79061182a565b80601f0160208091040260200160405190810160405280929190818152602001828054610bf39061182a565b8015610c405780601f10610c1557610100808354040283529160200191610c40565b820191906000526020600020905b815481529060010190602001808311610c2357829003601f168201915b505050505090806003015490806004018054610c5b9061182a565b80601f0160208091040260200160405190810160405280929190818152602001828054610c879061182a565b8015610cd45780601f10610ca957610100808354040283529160200191610cd4565b820191906000526020600020905b815481529060010190602001808311610cb757829003601f168201915b5050505050908060050154908060060154905087565b610cf2610800565b600081815260026020526040812080546001600160a01b031916815590610d1c6001830182611390565b610d2a600283016000611390565b6003820160009055600482016000610d429190611390565b60058201600090556006820160009055600782016000610d6291906113ca565b50600801805460ff1916905550565b60018054339181906000610d8483611a81565b909155505060408051610120810182526001600160a01b03848116825260208083018b81528385018b905260608401869052608084018a905260a084018990524260c085015260e08401889052600061010085018190528681526002909252939020825181546001600160a01b031916921691909117815591519091906001820190610e1090826118b3565b5060408201516002820190610e2590826118b3565b506060820151600382015560808201516004820190610e4490826118b3565b5060a0820151600582015560c0820151600682015560e08201518051610e74916007840191602090910190611345565b5061010091909101516008909101805460ff19169115159190911790556000818152600260205260409081902080546005820154600683015493517f226f15bbdecfae64eff394753791775d1a13ce1ed030a69361983ef73789b48394610ef4946001600160a01b039094169387936004820193909291600701906119a8565b60405180910390a150505050505050565b610f0d610800565b6000818152600260205260409020600801805460ff1916600117905560008181526003602081905260409091206007015410610fa35760405162461bcd60e51b815260206004820152602f60248201527f53616d7061682074656c6168206d656e6361706169206261746173206d616b7360448201526e1a5b585b08191c9bdc081c1bda5b9d608a1b6064820152608401610244565b60008181526003602052604081206007018054610fc290600190611a9a565b81548110610fd257610fd2611ab3565b60009182526020822001549150610fea826001611ac9565b60008481526003602090815260408083206007810180546001810182558186529385209093018590559287905242600684018190558354600585015492519596507f8294bfafecfc1ab74d8eb15927eaac0e551c0c4c01baf279acf01baf37afe3289561106b956001600160a01b03909216948a94600490930193916119a8565b60405180910390a1505050565b600060018054116110895750600090565b600180546110979190611a9a565b905090565b600260205260009081526040902080546001820180546001600160a01b0390921692916110c89061182a565b80601f01602080910402602001604051908101604052809291908181526020018280546110f49061182a565b80156111415780601f1061111657610100808354040283529160200191611141565b820191906000526020600020905b81548152906001019060200180831161112457829003601f168201915b5050505050908060020180546111569061182a565b80601f01602080910402602001604051908101604052809291908181526020018280546111829061182a565b80156111cf5780601f106111a4576101008083540402835291602001916111cf565b820191906000526020600020905b8154815290600101906020018083116111b257829003601f168201915b5050505050908060030154908060040180546111ea9061182a565b80601f01602080910402602001604051908101604052809291908181526020018280546112169061182a565b80156112635780601f1061123857610100808354040283529160200191611263565b820191906000526020600020905b81548152906001019060200180831161124657829003601f168201915b50505050600583015460068401546008909401549293909290915060ff1688565b61128c610800565b6001600160a01b0381166112f15760405162461bcd60e51b815260206004820152602660248201527f4f776e61626c653a206e6577206f776e657220697320746865207a65726f206160448201526564647265737360d01b6064820152608401610244565b6107fd81600080546001600160a01b038381166001600160a01b0319831681178455604051919092169283917f8be0079c531659141344cd1fd0a4f28419497f9722a3daafe3b4186f6b6457e09190a35050565b828054828255906000526020600020908101928215611380579160200282015b82811115611380578251825591602001919060010190611365565b5061138c9291506113e4565b5090565b50805461139c9061182a565b6000825580601f106113ac575050565b601f0160209004906000526020600020908101906107fd91906113e4565b50805460008255906000526020600020908101906107fd91905b5b8082111561138c57600081556001016113e5565b60006020828403121561140b57600080fd5b5035919050565b6000815180845260005b818110156114385760208185018101518683018201520161141c565b506000602082860101526020601f19601f83011685010191505092915050565b600081518084526020808501945080840160005b838110156114885781518752958201959082019060010161146c565b509495945050505050565b602081526114ad6020820183516001600160a01b03169052565b600060208301516101008060408501526114cb610120850183611412565b91506040850151601f19808685030160608701526114e98483611412565b93506060870151608087015260808701519150808685030160a08701526115108483611412565b935060a087015160c087015260c087015160e087015260e08701519150808685030183870152506115418382611458565b9695505050505050565b6001600160a01b038816815260e06020820181905260009061156f90830189611412565b82810360408401526115818189611412565b9050866060840152828103608084015261159b8187611412565b60a0840195909552505060c0015295945050505050565b634e487b7160e01b600052604160045260246000fd5b604051601f8201601f1916810167ffffffffffffffff811182821017156115f1576115f16115b2565b604052919050565b600082601f83011261160a57600080fd5b813567ffffffffffffffff811115611624576116246115b2565b611637601f8201601f19166020016115c8565b81815284602083860101111561164c57600080fd5b816020850160208301376000918101602001919091529392505050565b600080600080600060a0868803121561168157600080fd5b853567ffffffffffffffff8082111561169957600080fd5b6116a589838a016115f9565b96506020915081880135818111156116bc57600080fd5b6116c88a828b016115f9565b9650506040880135818111156116dd57600080fd5b6116e98a828b016115f9565b9550506060880135935060808801358181111561170557600080fd5b8801601f81018a1361171657600080fd5b803582811115611728576117286115b2565b8060051b92506117398484016115c8565b818152928201840192848101908c85111561175357600080fd5b928501925b8484101561177157833582529285019290850190611758565b8096505050505050509295509295909350565b6001600160a01b0389168152610100602082018190526000906117a98382018b611412565b905082810360408401526117bd818a611412565b905087606084015282810360808401526117d78188611412565b60a0840196909652505060c0810192909252151560e09091015295945050505050565b60006020828403121561180c57600080fd5b81356001600160a01b038116811461182357600080fd5b9392505050565b600181811c9082168061183e57607f821691505b60208210810361185e57634e487b7160e01b600052602260045260246000fd5b50919050565b601f8211156118ae57600081815260208120601f850160051c8101602086101561188b5750805b601f850160051c820191505b818110156118aa57828155600101611897565b5050505b505050565b815167ffffffffffffffff8111156118cd576118cd6115b2565b6118e1816118db845461182a565b84611864565b602080601f83116001811461191657600084156118fe5750858301515b600019600386901b1c1916600185901b1785556118aa565b600085815260208120601f198616915b8281101561194557888601518255948401946001909101908401611926565b50858210156119635787850151600019600388901b60f8161c191681555b5050505050600190811b01905550565b6000815480845260208085019450836000528060002060005b838110156114885781548752958201956001918201910161198c565b60018060a01b038716815260006020878184015260c06040840152600087546119d08161182a565b8060c087015260e06001808416600081146119f25760018114611a0c57611a3a565b60ff1985168984015283151560051b890183019550611a3a565b8c6000528660002060005b85811015611a325781548b8201860152908301908801611a17565b8a0184019650505b505050505086606085015285608085015283810360a0850152611a5d8186611973565b9a9950505050505050505050565b634e487b7160e01b600052601160045260246000fd5b600060018201611a9357611a93611a6b565b5060010190565b81810381811115611aad57611aad611a6b565b92915050565b634e487b7160e01b600052603260045260246000fd5b80820180821115611aad57611aad611a6b56fea264697066735822122072fa2d860317eff487961f013faa93e40970b0f3c3d05c19f91557a8e039530764736f6c63430008130033",
  "devdoc": {
    "kind": "dev",
    "methods": {
      "_checkOwner()": {
        "details": "Throws if the sender is not the owner."
      },
      "owner()": {
        "details": "Returns the address of the current owner."
      },
      "transferOwnership(address)": {
        "details": "Transfers ownership of the contract to a new account (`newOwner`). Can only be called by the current owner."
      }
    },
    "version": 1
  },
  "userdoc": {
    "kind": "user",
    "methods": {},
    "version": 1
  },
  "storageLayout": {
    "storage": [
      {
        "astId": 7,
        "contract": "contracts/DropPointT.sol:DropPointT",
        "label": "_owner",
        "offset": 0,
        "slot": "0",
        "type": "t_address"
      },
      {
        "astId": 128,
        "contract": "contracts/DropPointT.sol:DropPointT",
        "label": "counterSampah",
        "offset": 0,
        "slot": "1",
        "type": "t_uint256"
      },
      {
        "astId": 171,
        "contract": "contracts/DropPointT.sol:DropPointT",
        "label": "dataPenampungan",
        "offset": 0,
        "slot": "2",
        "type": "t_mapping(t_uint256,t_struct(DataPenampungan)148_storage)"
      },
      {
        "astId": 176,
        "contract": "contracts/DropPointT.sol:DropPointT",
        "label": "sampahList",
        "offset": 0,
        "slot": "3",
        "type": "t_mapping(t_uint256,t_struct(DataSampah)166_storage)"
      }
    ],
    "types": {
      "t_address": {
        "encoding": "inplace",
        "label": "address",
        "numberOfBytes": "20"
      },
      "t_array(t_uint256)dyn_storage": {
        "base": "t_uint256",
        "encoding": "dynamic_array",
        "label": "uint256[]",
        "numberOfBytes": "32"
      },
      "t_bool": {
        "encoding": "inplace",
        "label": "bool",
        "numberOfBytes": "1"
      },
      "t_mapping(t_uint256,t_struct(DataPenampungan)148_storage)": {
        "encoding": "mapping",
        "key": "t_uint256",
        "label": "mapping(uint256 => struct DropPointT.DataPenampungan)",
        "numberOfBytes": "32",
        "value": "t_struct(DataPenampungan)148_storage"
      },
      "t_mapping(t_uint256,t_struct(DataSampah)166_storage)": {
        "encoding": "mapping",
        "key": "t_uint256",
        "label": "mapping(uint256 => struct DropPointT.DataSampah)",
        "numberOfBytes": "32",
        "value": "t_struct(DataSampah)166_storage"
      },
      "t_string_storage": {
        "encoding": "bytes",
        "label": "string",
        "numberOfBytes": "32"
      },
      "t_struct(DataPenampungan)148_storage": {
        "encoding": "inplace",
        "label": "struct DropPointT.DataPenampungan",
        "members": [
          {
            "astId": 130,
            "contract": "contracts/DropPointT.sol:DropPointT",
            "label": "userAddress",
            "offset": 0,
            "slot": "0",
            "type": "t_address"
          },
          {
            "astId": 132,
            "contract": "contracts/DropPointT.sol:DropPointT",
            "label": "namaPengguna",
            "offset": 0,
            "slot": "1",
            "type": "t_string_storage"
          },
          {
            "astId": 134,
            "contract": "contracts/DropPointT.sol:DropPointT",
            "label": "emailPengguna",
            "offset": 0,
            "slot": "2",
            "type": "t_string_storage"
          },
          {
            "astId": 136,
            "contract": "contracts/DropPointT.sol:DropPointT",
            "label": "idSampah",
            "offset": 0,
            "slot": "3",
            "type": "t_uint256"
          },
          {
            "astId": 138,
            "contract": "contracts/DropPointT.sol:DropPointT",
            "label": "jenisSampah",
            "offset": 0,
            "slot": "4",
            "type": "t_string_storage"
          },
          {
            "astId": 140,
            "contract": "contracts/DropPointT.sol:DropPointT",
            "label": "berat",
            "offset": 0,
            "slot": "5",
            "type": "t_uint256"
          },
          {
            "astId": 142,
            "contract": "contracts/DropPointT.sol:DropPointT",
            "label": "waktu",
            "offset": 0,
            "slot": "6",
            "type": "t_uint256"
          },
          {
            "astId": 145,
            "contract": "contracts/DropPointT.sol:DropPointT",
            "label": "dropPoints",
            "offset": 0,
            "slot": "7",
            "type": "t_array(t_uint256)dyn_storage"
          },
          {
            "astId": 147,
            "contract": "contracts/DropPointT.sol:DropPointT",
            "label": "sudahDivalidasi",
            "offset": 0,
            "slot": "8",
            "type": "t_bool"
          }
        ],
        "numberOfBytes": "288"
      },
      "t_struct(DataSampah)166_storage": {
        "encoding": "inplace",
        "label": "struct DropPointT.DataSampah",
        "members": [
          {
            "astId": 150,
            "contract": "contracts/DropPointT.sol:DropPointT",
            "label": "userAddress",
            "offset": 0,
            "slot": "0",
            "type": "t_address"
          },
          {
            "astId": 152,
            "contract": "contracts/DropPointT.sol:DropPointT",
            "label": "namaPengguna",
            "offset": 0,
            "slot": "1",
            "type": "t_string_storage"
          },
          {
            "astId": 154,
            "contract": "contracts/DropPointT.sol:DropPointT",
            "label": "emailPengguna",
            "offset": 0,
            "slot": "2",
            "type": "t_string_storage"
          },
          {
            "astId": 156,
            "contract": "contracts/DropPointT.sol:DropPointT",
            "label": "idSampah",
            "offset": 0,
            "slot": "3",
            "type": "t_uint256"
          },
          {
            "astId": 158,
            "contract": "contracts/DropPointT.sol:DropPointT",
            "label": "jenisSampah",
            "offset": 0,
            "slot": "4",
            "type": "t_string_storage"
          },
          {
            "astId": 160,
            "contract": "contracts/DropPointT.sol:DropPointT",
            "label": "berat",
            "offset": 0,
            "slot": "5",
            "type": "t_uint256"
          },
          {
            "astId": 162,
            "contract": "contracts/DropPointT.sol:DropPointT",
            "label": "waktu",
            "offset": 0,
            "slot": "6",
            "type": "t_uint256"
          },
          {
            "astId": 165,
            "contract": "contracts/DropPointT.sol:DropPointT",
            "label": "dropPoints",
            "offset": 0,
            "slot": "7",
            "type": "t_array(t_uint256)dyn_storage"
          }
        ],
        "numberOfBytes": "256"
      },
      "t_uint256": {
        "encoding": "inplace",
        "label": "uint256",
        "numberOfBytes": "32"
      }
    }
  }
}