{
  "address": "0x5dF066990F40B679C84F71846dBC404d83d2972b",
  "abi": [
    {
      "anonymous": false,
      "inputs": [
        {
          "indexed": false,
          "internalType": "uint256",
          "name": "idSampah",
          "type": "uint256"
        }
      ],
      "name": "DataDivalidasi",
      "type": "event"
    },
    {
      "anonymous": false,
      "inputs": [
        {
          "indexed": true,
          "internalType": "address",
          "name": "previousOwner",
          "type": "address"
        },
        {
          "indexed": true,
          "internalType": "address",
          "name": "newOwner",
          "type": "address"
        }
      ],
      "name": "OwnershipTransferred",
      "type": "event"
    },
    {
      "anonymous": false,
      "inputs": [
        {
          "indexed": false,
          "internalType": "address",
          "name": "userAddress",
          "type": "address"
        },
        {
          "indexed": false,
          "internalType": "uint256",
          "name": "idSampah",
          "type": "uint256"
        },
        {
          "indexed": false,
          "internalType": "string",
          "name": "jenisSampah",
          "type": "string"
        },
        {
          "indexed": false,
          "internalType": "uint256",
          "name": "berat",
          "type": "uint256"
        },
        {
          "indexed": false,
          "internalType": "uint256",
          "name": "waktu",
          "type": "uint256"
        },
        {
          "indexed": false,
          "internalType": "uint256[]",
          "name": "dropPoints",
          "type": "uint256[]"
        }
      ],
      "name": "SampahDikirimKeDropPointSelanjutnya",
      "type": "event"
    },
    {
      "anonymous": false,
      "inputs": [
        {
          "indexed": false,
          "internalType": "address",
          "name": "userAddress",
          "type": "address"
        },
        {
          "indexed": false,
          "internalType": "uint256",
          "name": "idSampah",
          "type": "uint256"
        },
        {
          "indexed": false,
          "internalType": "string",
          "name": "jenisSampah",
          "type": "string"
        },
        {
          "indexed": false,
          "internalType": "uint256",
          "name": "berat",
          "type": "uint256"
        },
        {
          "indexed": false,
          "internalType": "uint256",
          "name": "waktu",
          "type": "uint256"
        },
        {
          "indexed": false,
          "internalType": "uint256[]",
          "name": "dropPoints",
          "type": "uint256[]"
        }
      ],
      "name": "SampahDitambahkan",
      "type": "event"
    },
    {
      "anonymous": false,
      "inputs": [
        {
          "indexed": false,
          "internalType": "address",
          "name": "userAddress",
          "type": "address"
        },
        {
          "indexed": false,
          "internalType": "uint256",
          "name": "idSampah",
          "type": "uint256"
        },
        {
          "indexed": false,
          "internalType": "string",
          "name": "jenisSampah",
          "type": "string"
        },
        {
          "indexed": false,
          "internalType": "uint256",
          "name": "berat",
          "type": "uint256"
        },
        {
          "indexed": false,
          "internalType": "uint256",
          "name": "waktu",
          "type": "uint256"
        },
        {
          "indexed": false,
          "internalType": "uint256[]",
          "name": "dropPoints",
          "type": "uint256[]"
        }
      ],
      "name": "SampahDitambahkanKePenampung",
      "type": "event"
    },
    {
      "inputs": [
        {
          "internalType": "uint256",
          "name": "_idSampah",
          "type": "uint256"
        }
      ],
      "name": "bersihkanDataSampah",
      "outputs": [],
      "stateMutability": "nonpayable",
      "type": "function"
    },
    {
      "inputs": [
        {
          "internalType": "uint256",
          "name": "",
          "type": "uint256"
        }
      ],
      "name": "dataPenampungan",
      "outputs": [
        {
          "internalType": "address",
          "name": "userAddress",
          "type": "address"
        },
        {
          "internalType": "string",
          "name": "namaPengguna",
          "type": "string"
        },
        {
          "internalType": "string",
          "name": "emailPengguna",
          "type": "string"
        },
        {
          "internalType": "uint256",
          "name": "idSampah",
          "type": "uint256"
        },
        {
          "internalType": "string",
          "name": "jenisSampah",
          "type": "string"
        },
        {
          "internalType": "uint256",
          "name": "berat",
          "type": "uint256"
        },
        {
          "internalType": "uint256",
          "name": "waktu",
          "type": "uint256"
        },
        {
          "internalType": "bool",
          "name": "sudahDivalidasi",
          "type": "bool"
        }
      ],
      "stateMutability": "view",
      "type": "function"
    },
    {
      "inputs": [
        {
          "internalType": "uint256",
          "name": "_idSampah",
          "type": "uint256"
        }
      ],
      "name": "getDataSampahById",
      "outputs": [
        {
          "components": [
            {
              "internalType": "address",
              "name": "userAddress",
              "type": "address"
            },
            {
              "internalType": "string",
              "name": "namaPengguna",
              "type": "string"
            },
            {
              "internalType": "string",
              "name": "emailPengguna",
              "type": "string"
            },
            {
              "internalType": "uint256",
              "name": "idSampah",
              "type": "uint256"
            },
            {
              "internalType": "string",
              "name": "jenisSampah",
              "type": "string"
            },
            {
              "internalType": "uint256",
              "name": "berat",
              "type": "uint256"
            },
            {
              "internalType": "uint256",
              "name": "waktu",
              "type": "uint256"
            },
            {
              "internalType": "uint256[]",
              "name": "dropPoints",
              "type": "uint256[]"
            }
          ],
          "internalType": "struct DropPointT.DataSampah",
          "name": "",
          "type": "tuple"
        }
      ],
      "stateMutability": "view",
      "type": "function"
    },
    {
      "inputs": [
        {
          "internalType": "string",
          "name": "_namaPengguna",
          "type": "string"
        },
        {
          "internalType": "string",
          "name": "_emailPengguna",
          "type": "string"
        },
        {
          "internalType": "string",
          "name": "_jenisSampah",
          "type": "string"
        },
        {
          "internalType": "uint256",
          "name": "_berat",
          "type": "uint256"
        },
        {
          "internalType": "uint256[]",
          "name": "_dropPoints",
          "type": "uint256[]"
        }
      ],
      "name": "inputDataPenampungan",
      "outputs": [],
      "stateMutability": "nonpayable",
      "type": "function"
    },
    {
      "inputs": [],
      "name": "jumlahsampah",
      "outputs": [
        {
          "internalType": "uint256",
          "name": "",
          "type": "uint256"
        }
      ],
      "stateMutability": "view",
      "type": "function"
    },
    {
      "inputs": [
        {
          "internalType": "uint256",
          "name": "_idSampah",
          "type": "uint256"
        }
      ],
      "name": "kirimKeDropPointSelanjutnya",
      "outputs": [],
      "stateMutability": "nonpayable",
      "type": "function"
    },
    {
      "inputs": [],
      "name": "owner",
      "outputs": [
        {
          "internalType": "address",
          "name": "",
          "type": "address"
        }
      ],
      "stateMutability": "view",
      "type": "function"
    },
    {
      "inputs": [
        {
          "internalType": "uint256",
          "name": "",
          "type": "uint256"
        }
      ],
      "name": "sampahList",
      "outputs": [
        {
          "internalType": "address",
          "name": "userAddress",
          "type": "address"
        },
        {
          "internalType": "string",
          "name": "namaPengguna",
          "type": "string"
        },
        {
          "internalType": "string",
          "name": "emailPengguna",
          "type": "string"
        },
        {
          "internalType": "uint256",
          "name": "idSampah",
          "type": "uint256"
        },
        {
          "internalType": "string",
          "name": "jenisSampah",
          "type": "string"
        },
        {
          "internalType": "uint256",
          "name": "berat",
          "type": "uint256"
        },
        {
          "internalType": "uint256",
          "name": "waktu",
          "type": "uint256"
        }
      ],
      "stateMutability": "view",
      "type": "function"
    },
    {
      "inputs": [
        {
          "internalType": "address",
          "name": "newOwner",
          "type": "address"
        }
      ],
      "name": "transferOwnership",
      "outputs": [],
      "stateMutability": "nonpayable",
      "type": "function"
    },
    {
      "inputs": [
        {
          "internalType": "uint256",
          "name": "_idSampah",
          "type": "uint256"
        }
      ],
      "name": "verifikasiDataSampah",
      "outputs": [],
      "stateMutability": "nonpayable",
      "type": "function"
    }
  ],
  "transactionHash": "0x322d3e4be49e49ba993f18afdc2d58bde321a9d6b8f3bd63cd2b198a0b3ed93b",
  "args": [],
  "numDeployments": 1,
  "solcInputHash": "2bdc1c11dc9eb610ed99f9757fa78b70",
  "bytecode": "0x60806040526001805534801561001457600080fd5b5061001e33610023565b610073565b600080546001600160a01b038381166001600160a01b0319831681178455604051919092169283917f8be0079c531659141344cd1fd0a4f28419497f9722a3daafe3b4186f6b6457e09190a35050565b611adc806100826000396000f3fe608060405234801561001057600080fd5b506004361061009e5760003560e01c80639b140ba8116100665780639b140ba814610135578063ad0eb88614610148578063e1d7e40c1461015b578063f13636a614610171578063f2fde38b1461019857600080fd5b80634d74809e146100a35780635e88e11d146100b85780636bd15aeb146100e15780637ce04214146101075780638da5cb5b1461011a575b600080fd5b6100b66100b13660046113c3565b6101ab565b005b6100cb6100c63660046113c3565b6107c5565b6040516100d8919061145d565b60405180910390f35b6100f46100ef3660046113c3565b610a76565b6040516100d89796959493929190611515565b6100b66101153660046113c3565b610c53565b6000546040516001600160a01b0390911681526020016100d8565b6100b6610143366004611633565b610cda565b6100b66101563660046113c3565b610e6e565b610163610fe1565b6040519081526020016100d8565b61018461017f3660046113c3565b611005565b6040516100d898979695949392919061174e565b6100b66101a63660046117c4565b6111ed565b6101b3611263565b60008181526002602052604090206008015460ff16156102125760405162461bcd60e51b81526020600482015260156024820152744461746120737564616820646976616c696461736960581b60448201526064015b60405180910390fd5b604080516101008101825260008381526002602081815293822080546001600160a01b0316845291859052835260010180549192830191610252906117f4565b80601f016020809104026020016040519081016040528092919081815260200182805461027e906117f4565b80156102cb5780601f106102a0576101008083540402835291602001916102cb565b820191906000526020600020905b8154815290600101906020018083116102ae57829003601f168201915b505050505081526020016002600084815260200190815260200160002060020180546102f6906117f4565b80601f0160208091040260200160405190810160405280929190818152602001828054610322906117f4565b801561036f5780601f106103445761010080835404028352916020019161036f565b820191906000526020600020905b81548152906001019060200180831161035257829003601f168201915b505050505081526020018281526020016002600084815260200190815260200160002060040180546103a0906117f4565b80601f01602080910402602001604051908101604052809291908181526020018280546103cc906117f4565b80156104195780601f106103ee57610100808354040283529160200191610419565b820191906000526020600020905b8154815290600101906020018083116103fc57829003601f168201915b505050918352505060008381526002602081815260408084206005810154838701526006810154828701529387905291815260079092018054825181850281018501909352808352606090940193919290919083018282801561049b57602002820191906000526020600020905b815481526020019060010190808311610487575b5050509190925250506000828152600360209081526040909120825181546001600160a01b0319166001600160a01b039091161781559082015160018201906104e4908261187d565b50604082015160028201906104f9908261187d565b506060820151600382015560808201516004820190610518908261187d565b5060a0820151600582015560c0820151600682015560e0820151805161054891600784019160209091019061130f565b50505060008181526003602052604081206001018054610567906117f4565b9050116105b65760405162461bcd60e51b815260206004820152601760248201527f4e616d6120546964616b20426f6c6568204b6f736f6e670000000000000000006044820152606401610209565b600081815260036020526040812060020180546105d2906117f4565b9050116106215760405162461bcd60e51b815260206004820152601860248201527f456d61696c20546964616b20426f6c6568204b6f736f6e6700000000000000006044820152606401610209565b60008181526003602052604090206005015461068d5760405162461bcd60e51b815260206004820152602560248201527f42657261742073616d706168206861727573206c656269682062657361722064604482015264061726920360dc1b6064820152608401610209565b600081815260036020526040812060040180546106a9906117f4565b9050116106f85760405162461bcd60e51b815260206004820152601f60248201527f4a656e69732073616d70616820746964616b20626f6c6568206b6f736f6e67006044820152606401610209565b60008181526002602052604090819020600801805460ff19166001179055517f9f81da346cbd8eaf6de96dc9bfb32263a1cf8376f7e7209899f851d54de6de65906107469083815260200190565b60405180910390a16000818152600260205260409081902080546005820154600683015493517fcbf69a5c8c460e4e72f038b0ae7b43036b6ecaa53b70f2b98efc9665cd24347a946107b1946001600160a01b03909416938793600482019390929160070190611972565b60405180910390a16107c281610c53565b50565b61081660405180610100016040528060006001600160a01b03168152602001606081526020016060815260200160008152602001606081526020016000815260200160008152602001606081525090565b6000828152600360209081526040918290208251610100810190935280546001600160a01b031683526001810180549192840191610853906117f4565b80601f016020809104026020016040519081016040528092919081815260200182805461087f906117f4565b80156108cc5780601f106108a1576101008083540402835291602001916108cc565b820191906000526020600020905b8154815290600101906020018083116108af57829003601f168201915b505050505081526020016002820180546108e5906117f4565b80601f0160208091040260200160405190810160405280929190818152602001828054610911906117f4565b801561095e5780601f106109335761010080835404028352916020019161095e565b820191906000526020600020905b81548152906001019060200180831161094157829003601f168201915b5050505050815260200160038201548152602001600482018054610981906117f4565b80601f01602080910402602001604051908101604052809291908181526020018280546109ad906117f4565b80156109fa5780601f106109cf576101008083540402835291602001916109fa565b820191906000526020600020905b8154815290600101906020018083116109dd57829003601f168201915b50505050508152602001600582015481526020016006820154815260200160078201805480602002602001604051908101604052809291908181526020018280548015610a6657602002820191906000526020600020905b815481526020019060010190808311610a52575b5050505050815250509050919050565b600360205260009081526040902080546001820180546001600160a01b039092169291610aa2906117f4565b80601f0160208091040260200160405190810160405280929190818152602001828054610ace906117f4565b8015610b1b5780601f10610af057610100808354040283529160200191610b1b565b820191906000526020600020905b815481529060010190602001808311610afe57829003601f168201915b505050505090806002018054610b30906117f4565b80601f0160208091040260200160405190810160405280929190818152602001828054610b5c906117f4565b8015610ba95780601f10610b7e57610100808354040283529160200191610ba9565b820191906000526020600020905b815481529060010190602001808311610b8c57829003601f168201915b505050505090806003015490806004018054610bc4906117f4565b80601f0160208091040260200160405190810160405280929190818152602001828054610bf0906117f4565b8015610c3d5780601f10610c1257610100808354040283529160200191610c3d565b820191906000526020600020905b815481529060010190602001808311610c2057829003601f168201915b5050505050908060050154908060060154905087565b610c5b611263565b600081815260026020526040812080546001600160a01b031916815590610c85600183018261135a565b610c9360028301600061135a565b6003820160009055600482016000610cab919061135a565b60058201600090556006820160009055600782016000610ccb9190611394565b50600801805460ff1916905550565b60018054339181906000610ced83611a4b565b909155505060408051610120810182526001600160a01b03848116825260208083018b81528385018b905260608401869052608084018a905260a084018990524260c085015260e08401889052600061010085018190528681526002909252939020825181546001600160a01b031916921691909117815591519091906001820190610d79908261187d565b5060408201516002820190610d8e908261187d565b506060820151600382015560808201516004820190610dad908261187d565b5060a0820151600582015560c0820151600682015560e08201518051610ddd91600784019160209091019061130f565b5061010091909101516008909101805460ff19169115159190911790556000818152600260205260409081902080546005820154600683015493517f226f15bbdecfae64eff394753791775d1a13ce1ed030a69361983ef73789b48394610e5d946001600160a01b03909416938793600482019390929160070190611972565b60405180910390a150505050505050565b610e76611263565b6000818152600260205260409020600801805460ff1916600117905560008181526003602081905260409091206007015410610f0c5760405162461bcd60e51b815260206004820152602f60248201527f53616d7061682074656c6168206d656e6361706169206261746173206d616b7360448201526e1a5b585b08191c9bdc081c1bda5b9d608a1b6064820152608401610209565b60008181526003602052604081206007018054610f2b90600190611a64565b81548110610f3b57610f3b611a7d565b60009182526020822001549150610f53826001611a93565b60008481526003602090815260408083206007810180546001810182558186529385209093018590559287905242600684018190558354600585015492519596507f8294bfafecfc1ab74d8eb15927eaac0e551c0c4c01baf279acf01baf37afe32895610fd4956001600160a01b03909216948a9460049093019391611972565b60405180910390a1505050565b60006001805411610ff25750600090565b600180546110009190611a64565b905090565b600260205260009081526040902080546001820180546001600160a01b039092169291611031906117f4565b80601f016020809104026020016040519081016040528092919081815260200182805461105d906117f4565b80156110aa5780601f1061107f576101008083540402835291602001916110aa565b820191906000526020600020905b81548152906001019060200180831161108d57829003601f168201915b5050505050908060020180546110bf906117f4565b80601f01602080910402602001604051908101604052809291908181526020018280546110eb906117f4565b80156111385780601f1061110d57610100808354040283529160200191611138565b820191906000526020600020905b81548152906001019060200180831161111b57829003601f168201915b505050505090806003015490806004018054611153906117f4565b80601f016020809104026020016040519081016040528092919081815260200182805461117f906117f4565b80156111cc5780601f106111a1576101008083540402835291602001916111cc565b820191906000526020600020905b8154815290600101906020018083116111af57829003601f168201915b50505050600583015460068401546008909401549293909290915060ff1688565b6111f5611263565b6001600160a01b03811661125a5760405162461bcd60e51b815260206004820152602660248201527f4f776e61626c653a206e6577206f776e657220697320746865207a65726f206160448201526564647265737360d01b6064820152608401610209565b6107c2816112bf565b6000546001600160a01b031633146112bd5760405162461bcd60e51b815260206004820181905260248201527f4f776e61626c653a2063616c6c6572206973206e6f7420746865206f776e65726044820152606401610209565b565b600080546001600160a01b038381166001600160a01b0319831681178455604051919092169283917f8be0079c531659141344cd1fd0a4f28419497f9722a3daafe3b4186f6b6457e09190a35050565b82805482825590600052602060002090810192821561134a579160200282015b8281111561134a57825182559160200191906001019061132f565b506113569291506113ae565b5090565b508054611366906117f4565b6000825580601f10611376575050565b601f0160209004906000526020600020908101906107c291906113ae565b50805460008255906000526020600020908101906107c291905b5b8082111561135657600081556001016113af565b6000602082840312156113d557600080fd5b5035919050565b6000815180845260005b81811015611402576020818501810151868301820152016113e6565b506000602082860101526020601f19601f83011685010191505092915050565b600081518084526020808501945080840160005b8381101561145257815187529582019590820190600101611436565b509495945050505050565b602081526114776020820183516001600160a01b03169052565b600060208301516101008060408501526114956101208501836113dc565b91506040850151601f19808685030160608701526114b384836113dc565b93506060870151608087015260808701519150808685030160a08701526114da84836113dc565b935060a087015160c087015260c087015160e087015260e087015191508086850301838701525061150b8382611422565b9695505050505050565b6001600160a01b038816815260e060208201819052600090611539908301896113dc565b828103604084015261154b81896113dc565b9050866060840152828103608084015261156581876113dc565b60a0840195909552505060c0015295945050505050565b634e487b7160e01b600052604160045260246000fd5b604051601f8201601f1916810167ffffffffffffffff811182821017156115bb576115bb61157c565b604052919050565b600082601f8301126115d457600080fd5b813567ffffffffffffffff8111156115ee576115ee61157c565b611601601f8201601f1916602001611592565b81815284602083860101111561161657600080fd5b816020850160208301376000918101602001919091529392505050565b600080600080600060a0868803121561164b57600080fd5b853567ffffffffffffffff8082111561166357600080fd5b61166f89838a016115c3565b965060209150818801358181111561168657600080fd5b6116928a828b016115c3565b9650506040880135818111156116a757600080fd5b6116b38a828b016115c3565b955050606088013593506080880135818111156116cf57600080fd5b8801601f81018a136116e057600080fd5b8035828111156116f2576116f261157c565b8060051b9250611703848401611592565b818152928201840192848101908c85111561171d57600080fd5b928501925b8484101561173b57833582529285019290850190611722565b8096505050505050509295509295909350565b6001600160a01b0389168152610100602082018190526000906117738382018b6113dc565b90508281036040840152611787818a6113dc565b905087606084015282810360808401526117a181886113dc565b60a0840196909652505060c0810192909252151560e09091015295945050505050565b6000602082840312156117d657600080fd5b81356001600160a01b03811681146117ed57600080fd5b9392505050565b600181811c9082168061180857607f821691505b60208210810361182857634e487b7160e01b600052602260045260246000fd5b50919050565b601f82111561187857600081815260208120601f850160051c810160208610156118555750805b601f850160051c820191505b8181101561187457828155600101611861565b5050505b505050565b815167ffffffffffffffff8111156118975761189761157c565b6118ab816118a584546117f4565b8461182e565b602080601f8311600181146118e057600084156118c85750858301515b600019600386901b1c1916600185901b178555611874565b600085815260208120601f198616915b8281101561190f578886015182559484019460019091019084016118f0565b508582101561192d5787850151600019600388901b60f8161c191681555b5050505050600190811b01905550565b6000815480845260208085019450836000528060002060005b8381101561145257815487529582019560019182019101611956565b60018060a01b038716815260006020878184015260c060408401526000875461199a816117f4565b8060c087015260e06001808416600081146119bc57600181146119d657611a04565b60ff1985168984015283151560051b890183019550611a04565b8c6000528660002060005b858110156119fc5781548b82018601529083019088016119e1565b8a0184019650505b505050505086606085015285608085015283810360a0850152611a27818661193d565b9a9950505050505050505050565b634e487b7160e01b600052601160045260246000fd5b600060018201611a5d57611a5d611a35565b5060010190565b81810381811115611a7757611a77611a35565b92915050565b634e487b7160e01b600052603260045260246000fd5b80820180821115611a7757611a77611a3556fea2646970667358221220d4af34cd8c6448fd777870af2de5cbe0d829a6815e089d3dfae30abe3cbfd48664736f6c63430008130033",
  "devdoc": {
    "kind": "dev",
    "methods": {
      "owner()": {
        "details": "Returns the address of the current owner."
      },
      "transferOwnership(address)": {
        "details": "Transfers ownership of the contract to a new account (`newOwner`). Can only be called by the current owner."
      }
    },
    "version": 1
  },
  "userdoc": {
    "kind": "user",
    "methods": {},
    "version": 1
  },
  "storageLayout": {
    "storage": [
      {
        "astId": 7,
        "contract": "contracts/DropPointT.sol:DropPointT",
        "label": "_owner",
        "offset": 0,
        "slot": "0",
        "type": "t_address"
      },
      {
        "astId": 128,
        "contract": "contracts/DropPointT.sol:DropPointT",
        "label": "counterSampah",
        "offset": 0,
        "slot": "1",
        "type": "t_uint256"
      },
      {
        "astId": 171,
        "contract": "contracts/DropPointT.sol:DropPointT",
        "label": "dataPenampungan",
        "offset": 0,
        "slot": "2",
        "type": "t_mapping(t_uint256,t_struct(DataPenampungan)148_storage)"
      },
      {
        "astId": 176,
        "contract": "contracts/DropPointT.sol:DropPointT",
        "label": "sampahList",
        "offset": 0,
        "slot": "3",
        "type": "t_mapping(t_uint256,t_struct(DataSampah)166_storage)"
      }
    ],
    "types": {
      "t_address": {
        "encoding": "inplace",
        "label": "address",
        "numberOfBytes": "20"
      },
      "t_array(t_uint256)dyn_storage": {
        "base": "t_uint256",
        "encoding": "dynamic_array",
        "label": "uint256[]",
        "numberOfBytes": "32"
      },
      "t_bool": {
        "encoding": "inplace",
        "label": "bool",
        "numberOfBytes": "1"
      },
      "t_mapping(t_uint256,t_struct(DataPenampungan)148_storage)": {
        "encoding": "mapping",
        "key": "t_uint256",
        "label": "mapping(uint256 => struct DropPointT.DataPenampungan)",
        "numberOfBytes": "32",
        "value": "t_struct(DataPenampungan)148_storage"
      },
      "t_mapping(t_uint256,t_struct(DataSampah)166_storage)": {
        "encoding": "mapping",
        "key": "t_uint256",
        "label": "mapping(uint256 => struct DropPointT.DataSampah)",
        "numberOfBytes": "32",
        "value": "t_struct(DataSampah)166_storage"
      },
      "t_string_storage": {
        "encoding": "bytes",
        "label": "string",
        "numberOfBytes": "32"
      },
      "t_struct(DataPenampungan)148_storage": {
        "encoding": "inplace",
        "label": "struct DropPointT.DataPenampungan",
        "members": [
          {
            "astId": 130,
            "contract": "contracts/DropPointT.sol:DropPointT",
            "label": "userAddress",
            "offset": 0,
            "slot": "0",
            "type": "t_address"
          },
          {
            "astId": 132,
            "contract": "contracts/DropPointT.sol:DropPointT",
            "label": "namaPengguna",
            "offset": 0,
            "slot": "1",
            "type": "t_string_storage"
          },
          {
            "astId": 134,
            "contract": "contracts/DropPointT.sol:DropPointT",
            "label": "emailPengguna",
            "offset": 0,
            "slot": "2",
            "type": "t_string_storage"
          },
          {
            "astId": 136,
            "contract": "contracts/DropPointT.sol:DropPointT",
            "label": "idSampah",
            "offset": 0,
            "slot": "3",
            "type": "t_uint256"
          },
          {
            "astId": 138,
            "contract": "contracts/DropPointT.sol:DropPointT",
            "label": "jenisSampah",
            "offset": 0,
            "slot": "4",
            "type": "t_string_storage"
          },
          {
            "astId": 140,
            "contract": "contracts/DropPointT.sol:DropPointT",
            "label": "berat",
            "offset": 0,
            "slot": "5",
            "type": "t_uint256"
          },
          {
            "astId": 142,
            "contract": "contracts/DropPointT.sol:DropPointT",
            "label": "waktu",
            "offset": 0,
            "slot": "6",
            "type": "t_uint256"
          },
          {
            "astId": 145,
            "contract": "contracts/DropPointT.sol:DropPointT",
            "label": "dropPoints",
            "offset": 0,
            "slot": "7",
            "type": "t_array(t_uint256)dyn_storage"
          },
          {
            "astId": 147,
            "contract": "contracts/DropPointT.sol:DropPointT",
            "label": "sudahDivalidasi",
            "offset": 0,
            "slot": "8",
            "type": "t_bool"
          }
        ],
        "numberOfBytes": "288"
      },
      "t_struct(DataSampah)166_storage": {
        "encoding": "inplace",
        "label": "struct DropPointT.DataSampah",
        "members": [
          {
            "astId": 150,
            "contract": "contracts/DropPointT.sol:DropPointT",
            "label": "userAddress",
            "offset": 0,
            "slot": "0",
            "type": "t_address"
          },
          {
            "astId": 152,
            "contract": "contracts/DropPointT.sol:DropPointT",
            "label": "namaPengguna",
            "offset": 0,
            "slot": "1",
            "type": "t_string_storage"
          },
          {
            "astId": 154,
            "contract": "contracts/DropPointT.sol:DropPointT",
            "label": "emailPengguna",
            "offset": 0,
            "slot": "2",
            "type": "t_string_storage"
          },
          {
            "astId": 156,
            "contract": "contracts/DropPointT.sol:DropPointT",
            "label": "idSampah",
            "offset": 0,
            "slot": "3",
            "type": "t_uint256"
          },
          {
            "astId": 158,
            "contract": "contracts/DropPointT.sol:DropPointT",
            "label": "jenisSampah",
            "offset": 0,
            "slot": "4",
            "type": "t_string_storage"
          },
          {
            "astId": 160,
            "contract": "contracts/DropPointT.sol:DropPointT",
            "label": "berat",
            "offset": 0,
            "slot": "5",
            "type": "t_uint256"
          },
          {
            "astId": 162,
            "contract": "contracts/DropPointT.sol:DropPointT",
            "label": "waktu",
            "offset": 0,
            "slot": "6",
            "type": "t_uint256"
          },
          {
            "astId": 165,
            "contract": "contracts/DropPointT.sol:DropPointT",
            "label": "dropPoints",
            "offset": 0,
            "slot": "7",
            "type": "t_array(t_uint256)dyn_storage"
          }
        ],
        "numberOfBytes": "256"
      },
      "t_uint256": {
        "encoding": "inplace",
        "label": "uint256",
        "numberOfBytes": "32"
      }
    }
  }
}