{
  "address": "0x5dF066990F40B679C84F71846dBC404d83d2972b",
  "abi": [
    {
      "inputs": [],
      "stateMutability": "nonpayable",
      "type": "constructor"
    },
    {
      "anonymous": false,
      "inputs": [
        {
          "indexed": false,
          "internalType": "uint256",
          "name": "idSampah",
          "type": "uint256"
        }
      ],
      "name": "DataDivalidasi",
      "type": "event"
    },
    {
      "anonymous": false,
      "inputs": [
        {
          "indexed": true,
          "internalType": "address",
          "name": "previousOwner",
          "type": "address"
        },
        {
          "indexed": true,
          "internalType": "address",
          "name": "newOwner",
          "type": "address"
        }
      ],
      "name": "OwnershipTransferred",
      "type": "event"
    },
    {
      "anonymous": false,
      "inputs": [
        {
          "indexed": false,
          "internalType": "uint256",
          "name": "idPengguna",
          "type": "uint256"
        },
        {
          "indexed": false,
          "internalType": "uint256",
          "name": "idSampah",
          "type": "uint256"
        },
        {
          "indexed": false,
          "internalType": "string",
          "name": "jenisSampah",
          "type": "string"
        },
        {
          "indexed": false,
          "internalType": "uint256",
          "name": "berat",
          "type": "uint256"
        },
        {
          "indexed": false,
          "internalType": "uint256",
          "name": "waktu",
          "type": "uint256"
        },
        {
          "indexed": false,
          "internalType": "uint256[]",
          "name": "dropPoints",
          "type": "uint256[]"
        }
      ],
      "name": "SampahDikirimKeDropPointSelanjutnya",
      "type": "event"
    },
    {
      "anonymous": false,
      "inputs": [
        {
          "indexed": false,
          "internalType": "uint256",
          "name": "idPengguna",
          "type": "uint256"
        },
        {
          "indexed": false,
          "internalType": "uint256",
          "name": "idSampah",
          "type": "uint256"
        },
        {
          "indexed": false,
          "internalType": "string",
          "name": "jenisSampah",
          "type": "string"
        },
        {
          "indexed": false,
          "internalType": "uint256",
          "name": "berat",
          "type": "uint256"
        },
        {
          "indexed": false,
          "internalType": "uint256",
          "name": "waktu",
          "type": "uint256"
        },
        {
          "indexed": false,
          "internalType": "uint256[]",
          "name": "dropPoints",
          "type": "uint256[]"
        }
      ],
      "name": "SampahDitambahkan",
      "type": "event"
    },
    {
      "anonymous": false,
      "inputs": [
        {
          "indexed": false,
          "internalType": "uint256",
          "name": "idPengguna",
          "type": "uint256"
        },
        {
          "indexed": false,
          "internalType": "uint256",
          "name": "idSampah",
          "type": "uint256"
        },
        {
          "indexed": false,
          "internalType": "string",
          "name": "jenisSampah",
          "type": "string"
        },
        {
          "indexed": false,
          "internalType": "uint256",
          "name": "berat",
          "type": "uint256"
        },
        {
          "indexed": false,
          "internalType": "uint256",
          "name": "waktu",
          "type": "uint256"
        },
        {
          "indexed": false,
          "internalType": "uint256[]",
          "name": "dropPoints",
          "type": "uint256[]"
        }
      ],
      "name": "SampahDitambahkanKePenampung",
      "type": "event"
    },
    {
      "inputs": [
        {
          "internalType": "uint256",
          "name": "_idSampah",
          "type": "uint256"
        }
      ],
      "name": "bersihkanDataSampah",
      "outputs": [],
      "stateMutability": "nonpayable",
      "type": "function"
    },
    {
      "inputs": [
        {
          "internalType": "uint256",
          "name": "",
          "type": "uint256"
        }
      ],
      "name": "dataPenampungan",
      "outputs": [
        {
          "internalType": "uint256",
          "name": "idPengguna",
          "type": "uint256"
        },
        {
          "internalType": "string",
          "name": "namaPengguna",
          "type": "string"
        },
        {
          "internalType": "string",
          "name": "emailPengguna",
          "type": "string"
        },
        {
          "internalType": "uint256",
          "name": "idSampah",
          "type": "uint256"
        },
        {
          "internalType": "string",
          "name": "jenisSampah",
          "type": "string"
        },
        {
          "internalType": "uint256",
          "name": "berat",
          "type": "uint256"
        },
        {
          "internalType": "uint256",
          "name": "waktu",
          "type": "uint256"
        },
        {
          "internalType": "bool",
          "name": "sudahDivalidasi",
          "type": "bool"
        }
      ],
      "stateMutability": "view",
      "type": "function"
    },
    {
      "inputs": [
        {
          "internalType": "uint256",
          "name": "_idSampah",
          "type": "uint256"
        }
      ],
      "name": "getDataSampahById",
      "outputs": [
        {
          "components": [
            {
              "internalType": "uint256",
              "name": "idPengguna",
              "type": "uint256"
            },
            {
              "internalType": "string",
              "name": "namaPengguna",
              "type": "string"
            },
            {
              "internalType": "string",
              "name": "emailPengguna",
              "type": "string"
            },
            {
              "internalType": "uint256",
              "name": "idSampah",
              "type": "uint256"
            },
            {
              "internalType": "string",
              "name": "jenisSampah",
              "type": "string"
            },
            {
              "internalType": "uint256",
              "name": "berat",
              "type": "uint256"
            },
            {
              "internalType": "uint256",
              "name": "waktu",
              "type": "uint256"
            },
            {
              "internalType": "uint256[]",
              "name": "dropPoints",
              "type": "uint256[]"
            }
          ],
          "internalType": "struct DropPointT.DataSampah",
          "name": "",
          "type": "tuple"
        }
      ],
      "stateMutability": "view",
      "type": "function"
    },
    {
      "inputs": [
        {
          "internalType": "uint256",
          "name": "_idPengguna",
          "type": "uint256"
        },
        {
          "internalType": "string",
          "name": "_namaPengguna",
          "type": "string"
        },
        {
          "internalType": "string",
          "name": "_emailPengguna",
          "type": "string"
        },
        {
          "internalType": "string",
          "name": "_jenisSampah",
          "type": "string"
        },
        {
          "internalType": "uint256",
          "name": "_berat",
          "type": "uint256"
        },
        {
          "internalType": "uint256[]",
          "name": "_dropPoints",
          "type": "uint256[]"
        }
      ],
      "name": "inputDataPenampungan",
      "outputs": [],
      "stateMutability": "nonpayable",
      "type": "function"
    },
    {
      "inputs": [],
      "name": "jumlahsampah",
      "outputs": [
        {
          "internalType": "uint256",
          "name": "",
          "type": "uint256"
        }
      ],
      "stateMutability": "view",
      "type": "function"
    },
    {
      "inputs": [
        {
          "internalType": "uint256",
          "name": "_idSampah",
          "type": "uint256"
        }
      ],
      "name": "kirimKeDropPointSelanjutnya",
      "outputs": [],
      "stateMutability": "nonpayable",
      "type": "function"
    },
    {
      "inputs": [],
      "name": "owner",
      "outputs": [
        {
          "internalType": "address",
          "name": "",
          "type": "address"
        }
      ],
      "stateMutability": "view",
      "type": "function"
    },
    {
      "inputs": [],
      "name": "renounceOwnership",
      "outputs": [],
      "stateMutability": "nonpayable",
      "type": "function"
    },
    {
      "inputs": [
        {
          "internalType": "uint256",
          "name": "",
          "type": "uint256"
        }
      ],
      "name": "sampahList",
      "outputs": [
        {
          "internalType": "uint256",
          "name": "idPengguna",
          "type": "uint256"
        },
        {
          "internalType": "string",
          "name": "namaPengguna",
          "type": "string"
        },
        {
          "internalType": "string",
          "name": "emailPengguna",
          "type": "string"
        },
        {
          "internalType": "uint256",
          "name": "idSampah",
          "type": "uint256"
        },
        {
          "internalType": "string",
          "name": "jenisSampah",
          "type": "string"
        },
        {
          "internalType": "uint256",
          "name": "berat",
          "type": "uint256"
        },
        {
          "internalType": "uint256",
          "name": "waktu",
          "type": "uint256"
        }
      ],
      "stateMutability": "view",
      "type": "function"
    },
    {
      "inputs": [
        {
          "internalType": "address",
          "name": "newOwner",
          "type": "address"
        }
      ],
      "name": "transferOwnership",
      "outputs": [],
      "stateMutability": "nonpayable",
      "type": "function"
    },
    {
      "inputs": [
        {
          "internalType": "uint256",
          "name": "_idSampah",
          "type": "uint256"
        }
      ],
      "name": "verifikasiDataSampah",
      "outputs": [],
      "stateMutability": "nonpayable",
      "type": "function"
    }
  ],
  "transactionHash": "0xfe316792dd265b7219d86026d582f15174074eac87f41bc8a9e9fba6a7bf0be0",
  "args": [],
  "numDeployments": 1,
  "solcInputHash": "7e58ed8cfe4265ce6015f017b45a91b7",
  "bytecode": "0x608060405234801561001057600080fd5b5061001a33610023565b60018055610073565b600080546001600160a01b038381166001600160a01b0319831681178455604051919092169283917f8be0079c531659141344cd1fd0a4f28419497f9722a3daafe3b4186f6b6457e09190a35050565b611a5b806100826000396000f3fe608060405234801561001057600080fd5b50600436106100a95760003560e01c80638da5cb5b116100715780638da5cb5b1461012d578063ad0eb88614610148578063d5f48d431461015b578063e1d7e40c1461016e578063f13636a614610184578063f2fde38b146101ab57600080fd5b80634d74809e146100ae5780635e88e11d146100c35780636bd15aeb146100ec578063715018a6146101125780637ce042141461011a575b600080fd5b6100c16100bc36600461134b565b6101be565b005b6100d66100d136600461134b565b610797565b6040516100e391906113e5565b60405180910390f35b6100ff6100fa36600461134b565b610a3b565b6040516100e3979695949392919061148e565b6100c1610c0e565b6100c161012836600461134b565b610c22565b6000546040516001600160a01b0390911681526020016100e3565b6100c161015636600461134b565b610c9e565b6100c1610169366004611621565b610e07565b610176610f72565b6040519081526020016100e3565b61019761019236600461134b565b610f96565b6040516100e39897969594939291906116e0565b6100c16101b936600461174b565b611174565b6101c66111ed565b60008181526002602052604090206008015460ff16156102255760405162461bcd60e51b81526020600482015260156024820152744461746120737564616820646976616c696461736960581b60448201526064015b60405180910390fd5b6040805161010081018252600083815260026020818152938220805484529185905283526001018054919283019161025c9061177b565b80601f01602080910402602001604051908101604052809291908181526020018280546102889061177b565b80156102d55780601f106102aa576101008083540402835291602001916102d5565b820191906000526020600020905b8154815290600101906020018083116102b857829003601f168201915b505050505081526020016002600084815260200190815260200160002060020180546103009061177b565b80601f016020809104026020016040519081016040528092919081815260200182805461032c9061177b565b80156103795780601f1061034e57610100808354040283529160200191610379565b820191906000526020600020905b81548152906001019060200180831161035c57829003601f168201915b505050505081526020018281526020016002600084815260200190815260200160002060040180546103aa9061177b565b80601f01602080910402602001604051908101604052809291908181526020018280546103d69061177b565b80156104235780601f106103f857610100808354040283529160200191610423565b820191906000526020600020905b81548152906001019060200180831161040657829003601f168201915b50505091835250506000838152600260208181526040808420600581015483870152600681015482870152938790529181526007909201805482518185028101850190935280835260609094019391929091908301828280156104a557602002820191906000526020600020905b815481526020019060010190808311610491575b5050509190925250506000828152600360209081526040909120825181559082015160018201906104d69082611804565b50604082015160028201906104eb9082611804565b50606082015160038201556080820151600482019061050a9082611804565b5060a0820151600582015560c0820151600682015560e0820151805161053a916007840191602090910190611297565b505050600081815260036020526040812060010180546105599061177b565b9050116105a85760405162461bcd60e51b815260206004820152601760248201527f4e616d6120546964616b20426f6c6568204b6f736f6e67000000000000000000604482015260640161021c565b600081815260036020526040812060020180546105c49061177b565b9050116106135760405162461bcd60e51b815260206004820152601860248201527f456d61696c20546964616b20426f6c6568204b6f736f6e670000000000000000604482015260640161021c565b60008181526003602052604090206005015461067f5760405162461bcd60e51b815260206004820152602560248201527f42657261742073616d706168206861727573206c656269682062657361722064604482015264061726920360dc1b606482015260840161021c565b6000818152600360205260408120600401805461069b9061177b565b9050116106ea5760405162461bcd60e51b815260206004820152601f60248201527f4a656e69732073616d70616820746964616b20626f6c6568206b6f736f6e6700604482015260640161021c565b6000818152600260205260409081902060088101805460ff1916600117905580546005820154600683015493517f9ede67914ca4b5ea2095fe87d7065d3f79ee9ccd83348ae37f73703ba731dc29946107509487936004820193909291600701906118f9565b60405180910390a161076181610c22565b6040518181527f9f81da346cbd8eaf6de96dc9bfb32263a1cf8376f7e7209899f851d54de6de659060200160405180910390a150565b6107df60405180610100016040528060008152602001606081526020016060815260200160008152602001606081526020016000815260200160008152602001606081525090565b6003600083815260200190815260200160002060405180610100016040529081600082015481526020016001820180546108189061177b565b80601f01602080910402602001604051908101604052809291908181526020018280546108449061177b565b80156108915780601f1061086657610100808354040283529160200191610891565b820191906000526020600020905b81548152906001019060200180831161087457829003601f168201915b505050505081526020016002820180546108aa9061177b565b80601f01602080910402602001604051908101604052809291908181526020018280546108d69061177b565b80156109235780601f106108f857610100808354040283529160200191610923565b820191906000526020600020905b81548152906001019060200180831161090657829003601f168201915b50505050508152602001600382015481526020016004820180546109469061177b565b80601f01602080910402602001604051908101604052809291908181526020018280546109729061177b565b80156109bf5780601f10610994576101008083540402835291602001916109bf565b820191906000526020600020905b8154815290600101906020018083116109a257829003601f168201915b50505050508152602001600582015481526020016006820154815260200160078201805480602002602001604051908101604052809291908181526020018280548015610a2b57602002820191906000526020600020905b815481526020019060010190808311610a17575b5050505050815250509050919050565b60036020526000908152604090208054600182018054919291610a5d9061177b565b80601f0160208091040260200160405190810160405280929190818152602001828054610a899061177b565b8015610ad65780601f10610aab57610100808354040283529160200191610ad6565b820191906000526020600020905b815481529060010190602001808311610ab957829003601f168201915b505050505090806002018054610aeb9061177b565b80601f0160208091040260200160405190810160405280929190818152602001828054610b179061177b565b8015610b645780601f10610b3957610100808354040283529160200191610b64565b820191906000526020600020905b815481529060010190602001808311610b4757829003601f168201915b505050505090806003015490806004018054610b7f9061177b565b80601f0160208091040260200160405190810160405280929190818152602001828054610bab9061177b565b8015610bf85780601f10610bcd57610100808354040283529160200191610bf8565b820191906000526020600020905b815481529060010190602001808311610bdb57829003601f168201915b5050505050908060050154908060060154905087565b610c166111ed565b610c206000611247565b565b610c2a6111ed565b600081815260026020526040812081815590610c4960018301826112e2565b610c576002830160006112e2565b6003820160009055600482016000610c6f91906112e2565b60058201600090556006820160009055600782016000610c8f919061131c565b50600801805460ff1916905550565b610ca66111ed565b6000818152600260205260409020600801805460ff1916600117905560008181526003602081905260409091206007015410610d3c5760405162461bcd60e51b815260206004820152602f60248201527f53616d7061682074656c6168206d656e6361706169206261746173206d616b7360448201526e1a5b585b08191c9bdc081c1bda5b9d608a1b606482015260840161021c565b60008181526003602052604081206007018054610d5b906001906119ca565b81548110610d6b57610d6b6119e3565b60009182526020822001549150610d838260016119f9565b60008481526003602090815260408083206007810180546001810182558186529385209093018590559287905242600684018190558354600585015492519596507fef2280ad23f256360078311861ff98f945c7a31775a3a48c5d126044031f588495610dfa9591948a94600490930193916118f9565b60405180910390a1505050565b600180549081906000610e1983611a0c565b909155505060408051610120810182528881526020808201898152828401899052606083018590526080830188905260a083018790524260c084015260e083018690526000610100840181905285815260029092529290208151815591519091906001820190610e899082611804565b5060408201516002820190610e9e9082611804565b506060820151600382015560808201516004820190610ebd9082611804565b5060a0820151600582015560c0820151600682015560e08201518051610eed916007840191602090910190611297565b5061010091909101516008909101805460ff19169115159190911790556000818152600260205260409081902080546005820154600683015493517f2e2a3f283510ced4d7b8481193074b47b339aea433a25cc54ca950b62dc3797694610f619487936004820193909291600701906118f9565b60405180910390a150505050505050565b60006001805411610f835750600090565b60018054610f9191906119ca565b905090565b60026020526000908152604090208054600182018054919291610fb89061177b565b80601f0160208091040260200160405190810160405280929190818152602001828054610fe49061177b565b80156110315780601f1061100657610100808354040283529160200191611031565b820191906000526020600020905b81548152906001019060200180831161101457829003601f168201915b5050505050908060020180546110469061177b565b80601f01602080910402602001604051908101604052809291908181526020018280546110729061177b565b80156110bf5780601f10611094576101008083540402835291602001916110bf565b820191906000526020600020905b8154815290600101906020018083116110a257829003601f168201915b5050505050908060030154908060040180546110da9061177b565b80601f01602080910402602001604051908101604052809291908181526020018280546111069061177b565b80156111535780601f1061112857610100808354040283529160200191611153565b820191906000526020600020905b81548152906001019060200180831161113657829003601f168201915b50505050600583015460068401546008909401549293909290915060ff1688565b61117c6111ed565b6001600160a01b0381166111e15760405162461bcd60e51b815260206004820152602660248201527f4f776e61626c653a206e6577206f776e657220697320746865207a65726f206160448201526564647265737360d01b606482015260840161021c565b6111ea81611247565b50565b6000546001600160a01b03163314610c205760405162461bcd60e51b815260206004820181905260248201527f4f776e61626c653a2063616c6c6572206973206e6f7420746865206f776e6572604482015260640161021c565b600080546001600160a01b038381166001600160a01b0319831681178455604051919092169283917f8be0079c531659141344cd1fd0a4f28419497f9722a3daafe3b4186f6b6457e09190a35050565b8280548282559060005260206000209081019282156112d2579160200282015b828111156112d25782518255916020019190600101906112b7565b506112de929150611336565b5090565b5080546112ee9061177b565b6000825580601f106112fe575050565b601f0160209004906000526020600020908101906111ea9190611336565b50805460008255906000526020600020908101906111ea91905b5b808211156112de5760008155600101611337565b60006020828403121561135d57600080fd5b5035919050565b6000815180845260005b8181101561138a5760208185018101518683018201520161136e565b506000602082860101526020601f19601f83011685010191505092915050565b600081518084526020808501945080840160005b838110156113da578151875295820195908201906001016113be565b509495945050505050565b60208152815160208201526000602083015161010080604085015261140e610120850183611364565b91506040850151601f198086850301606087015261142c8483611364565b93506060870151608087015260808701519150808685030160a08701526114538483611364565b935060a087015160c087015260c087015160e087015260e087015191508086850301838701525061148483826113aa565b9695505050505050565b87815260e0602082015260006114a760e0830189611364565b82810360408401526114b98189611364565b905086606084015282810360808401526114d38187611364565b60a0840195909552505060c0015295945050505050565b634e487b7160e01b600052604160045260246000fd5b604051601f8201601f1916810167ffffffffffffffff81118282101715611529576115296114ea565b604052919050565b600082601f83011261154257600080fd5b813567ffffffffffffffff81111561155c5761155c6114ea565b61156f601f8201601f1916602001611500565b81815284602083860101111561158457600080fd5b816020850160208301376000918101602001919091529392505050565b600082601f8301126115b257600080fd5b8135602067ffffffffffffffff8211156115ce576115ce6114ea565b8160051b6115dd828201611500565b92835284810182019282810190878511156115f757600080fd5b83870192505b84831015611616578235825291830191908301906115fd565b979650505050505050565b60008060008060008060c0878903121561163a57600080fd5b86359550602087013567ffffffffffffffff8082111561165957600080fd5b6116658a838b01611531565b9650604089013591508082111561167b57600080fd5b6116878a838b01611531565b9550606089013591508082111561169d57600080fd5b6116a98a838b01611531565b94506080890135935060a08901359150808211156116c657600080fd5b506116d389828a016115a1565b9150509295509295509295565b60006101008a83528060208401526116fa8184018b611364565b9050828103604084015261170e818a611364565b905087606084015282810360808401526117288188611364565b60a0840196909652505060c0810192909252151560e09091015295945050505050565b60006020828403121561175d57600080fd5b81356001600160a01b038116811461177457600080fd5b9392505050565b600181811c9082168061178f57607f821691505b6020821081036117af57634e487b7160e01b600052602260045260246000fd5b50919050565b601f8211156117ff57600081815260208120601f850160051c810160208610156117dc5750805b601f850160051c820191505b818110156117fb578281556001016117e8565b5050505b505050565b815167ffffffffffffffff81111561181e5761181e6114ea565b6118328161182c845461177b565b846117b5565b602080601f831160018114611867576000841561184f5750858301515b600019600386901b1c1916600185901b1785556117fb565b600085815260208120601f198616915b8281101561189657888601518255948401946001909101908401611877565b50858210156118b45787850151600019600388901b60f8161c191681555b5050505050600190811b01905550565b6000815480845260208085019450836000528060002060005b838110156113da578154875295820195600191820191016118dd565b86815260006020878184015260c06040840152600087546119198161177b565b8060c087015260e060018084166000811461193b576001811461195557611983565b60ff1985168984015283151560051b890183019550611983565b8c6000528660002060005b8581101561197b5781548b8201860152908301908801611960565b8a0184019650505b505050505086606085015285608085015283810360a08501526119a681866118c4565b9a9950505050505050505050565b634e487b7160e01b600052601160045260246000fd5b818103818111156119dd576119dd6119b4565b92915050565b634e487b7160e01b600052603260045260246000fd5b808201808211156119dd576119dd6119b4565b600060018201611a1e57611a1e6119b4565b506001019056fea2646970667358221220d380d5ba1532f2e6bea27042d240821d04bfb3f57a14cf84522ca8ef998e028764736f6c63430008130033",
  "devdoc": {
    "kind": "dev",
    "methods": {
      "owner()": {
        "details": "Returns the address of the current owner."
      },
      "renounceOwnership()": {
        "details": "Leaves the contract without owner. It will not be possible to call `onlyOwner` functions. Can only be called by the current owner. NOTE: Renouncing ownership will leave the contract without an owner, thereby disabling any functionality that is only available to the owner."
      },
      "transferOwnership(address)": {
        "details": "Transfers ownership of the contract to a new account (`newOwner`). Can only be called by the current owner."
      }
    },
    "version": 1
  },
  "userdoc": {
    "kind": "user",
    "methods": {},
    "version": 1
  },
  "storageLayout": {
    "storage": [
      {
        "astId": 7,
        "contract": "contracts/DropPointT.sol:DropPointT",
        "label": "_owner",
        "offset": 0,
        "slot": "0",
        "type": "t_address"
      },
      {
        "astId": 141,
        "contract": "contracts/DropPointT.sol:DropPointT",
        "label": "counterSampah",
        "offset": 0,
        "slot": "1",
        "type": "t_uint256"
      },
      {
        "astId": 184,
        "contract": "contracts/DropPointT.sol:DropPointT",
        "label": "dataPenampungan",
        "offset": 0,
        "slot": "2",
        "type": "t_mapping(t_uint256,t_struct(DataPenampungan)161_storage)"
      },
      {
        "astId": 189,
        "contract": "contracts/DropPointT.sol:DropPointT",
        "label": "sampahList",
        "offset": 0,
        "slot": "3",
        "type": "t_mapping(t_uint256,t_struct(DataSampah)179_storage)"
      }
    ],
    "types": {
      "t_address": {
        "encoding": "inplace",
        "label": "address",
        "numberOfBytes": "20"
      },
      "t_array(t_uint256)dyn_storage": {
        "base": "t_uint256",
        "encoding": "dynamic_array",
        "label": "uint256[]",
        "numberOfBytes": "32"
      },
      "t_bool": {
        "encoding": "inplace",
        "label": "bool",
        "numberOfBytes": "1"
      },
      "t_mapping(t_uint256,t_struct(DataPenampungan)161_storage)": {
        "encoding": "mapping",
        "key": "t_uint256",
        "label": "mapping(uint256 => struct DropPointT.DataPenampungan)",
        "numberOfBytes": "32",
        "value": "t_struct(DataPenampungan)161_storage"
      },
      "t_mapping(t_uint256,t_struct(DataSampah)179_storage)": {
        "encoding": "mapping",
        "key": "t_uint256",
        "label": "mapping(uint256 => struct DropPointT.DataSampah)",
        "numberOfBytes": "32",
        "value": "t_struct(DataSampah)179_storage"
      },
      "t_string_storage": {
        "encoding": "bytes",
        "label": "string",
        "numberOfBytes": "32"
      },
      "t_struct(DataPenampungan)161_storage": {
        "encoding": "inplace",
        "label": "struct DropPointT.DataPenampungan",
        "members": [
          {
            "astId": 143,
            "contract": "contracts/DropPointT.sol:DropPointT",
            "label": "idPengguna",
            "offset": 0,
            "slot": "0",
            "type": "t_uint256"
          },
          {
            "astId": 145,
            "contract": "contracts/DropPointT.sol:DropPointT",
            "label": "namaPengguna",
            "offset": 0,
            "slot": "1",
            "type": "t_string_storage"
          },
          {
            "astId": 147,
            "contract": "contracts/DropPointT.sol:DropPointT",
            "label": "emailPengguna",
            "offset": 0,
            "slot": "2",
            "type": "t_string_storage"
          },
          {
            "astId": 149,
            "contract": "contracts/DropPointT.sol:DropPointT",
            "label": "idSampah",
            "offset": 0,
            "slot": "3",
            "type": "t_uint256"
          },
          {
            "astId": 151,
            "contract": "contracts/DropPointT.sol:DropPointT",
            "label": "jenisSampah",
            "offset": 0,
            "slot": "4",
            "type": "t_string_storage"
          },
          {
            "astId": 153,
            "contract": "contracts/DropPointT.sol:DropPointT",
            "label": "berat",
            "offset": 0,
            "slot": "5",
            "type": "t_uint256"
          },
          {
            "astId": 155,
            "contract": "contracts/DropPointT.sol:DropPointT",
            "label": "waktu",
            "offset": 0,
            "slot": "6",
            "type": "t_uint256"
          },
          {
            "astId": 158,
            "contract": "contracts/DropPointT.sol:DropPointT",
            "label": "dropPoints",
            "offset": 0,
            "slot": "7",
            "type": "t_array(t_uint256)dyn_storage"
          },
          {
            "astId": 160,
            "contract": "contracts/DropPointT.sol:DropPointT",
            "label": "sudahDivalidasi",
            "offset": 0,
            "slot": "8",
            "type": "t_bool"
          }
        ],
        "numberOfBytes": "288"
      },
      "t_struct(DataSampah)179_storage": {
        "encoding": "inplace",
        "label": "struct DropPointT.DataSampah",
        "members": [
          {
            "astId": 163,
            "contract": "contracts/DropPointT.sol:DropPointT",
            "label": "idPengguna",
            "offset": 0,
            "slot": "0",
            "type": "t_uint256"
          },
          {
            "astId": 165,
            "contract": "contracts/DropPointT.sol:DropPointT",
            "label": "namaPengguna",
            "offset": 0,
            "slot": "1",
            "type": "t_string_storage"
          },
          {
            "astId": 167,
            "contract": "contracts/DropPointT.sol:DropPointT",
            "label": "emailPengguna",
            "offset": 0,
            "slot": "2",
            "type": "t_string_storage"
          },
          {
            "astId": 169,
            "contract": "contracts/DropPointT.sol:DropPointT",
            "label": "idSampah",
            "offset": 0,
            "slot": "3",
            "type": "t_uint256"
          },
          {
            "astId": 171,
            "contract": "contracts/DropPointT.sol:DropPointT",
            "label": "jenisSampah",
            "offset": 0,
            "slot": "4",
            "type": "t_string_storage"
          },
          {
            "astId": 173,
            "contract": "contracts/DropPointT.sol:DropPointT",
            "label": "berat",
            "offset": 0,
            "slot": "5",
            "type": "t_uint256"
          },
          {
            "astId": 175,
            "contract": "contracts/DropPointT.sol:DropPointT",
            "label": "waktu",
            "offset": 0,
            "slot": "6",
            "type": "t_uint256"
          },
          {
            "astId": 178,
            "contract": "contracts/DropPointT.sol:DropPointT",
            "label": "dropPoints",
            "offset": 0,
            "slot": "7",
            "type": "t_array(t_uint256)dyn_storage"
          }
        ],
        "numberOfBytes": "256"
      },
      "t_uint256": {
        "encoding": "inplace",
        "label": "uint256",
        "numberOfBytes": "32"
      }
    }
  }
}