{
  "address": "0x5dF066990F40B679C84F71846dBC404d83d2972b",
  "abi": [
    {
      "anonymous": false,
      "inputs": [
        {
          "indexed": false,
          "internalType": "uint256",
          "name": "idSampah",
          "type": "uint256"
        }
      ],
      "name": "DataDivalidasi",
      "type": "event"
    },
    {
      "anonymous": false,
      "inputs": [
        {
          "indexed": true,
          "internalType": "address",
          "name": "previousOwner",
          "type": "address"
        },
        {
          "indexed": true,
          "internalType": "address",
          "name": "newOwner",
          "type": "address"
        }
      ],
      "name": "OwnershipTransferred",
      "type": "event"
    },
    {
      "anonymous": false,
      "inputs": [
        {
          "indexed": false,
          "internalType": "address",
          "name": "userAddress",
          "type": "address"
        },
        {
          "indexed": false,
          "internalType": "uint256",
          "name": "idSampah",
          "type": "uint256"
        },
        {
          "indexed": false,
          "internalType": "string",
          "name": "jenisSampah",
          "type": "string"
        },
        {
          "indexed": false,
          "internalType": "uint256",
          "name": "berat",
          "type": "uint256"
        },
        {
          "indexed": false,
          "internalType": "uint256",
          "name": "waktu",
          "type": "uint256"
        },
        {
          "indexed": false,
          "internalType": "uint256[]",
          "name": "dropPoints",
          "type": "uint256[]"
        }
      ],
      "name": "SampahDikirimKeDropPointSelanjutnya",
      "type": "event"
    },
    {
      "anonymous": false,
      "inputs": [
        {
          "indexed": false,
          "internalType": "address",
          "name": "userAddress",
          "type": "address"
        },
        {
          "indexed": false,
          "internalType": "uint256",
          "name": "idSampah",
          "type": "uint256"
        },
        {
          "indexed": false,
          "internalType": "string",
          "name": "jenisSampah",
          "type": "string"
        },
        {
          "indexed": false,
          "internalType": "uint256",
          "name": "berat",
          "type": "uint256"
        },
        {
          "indexed": false,
          "internalType": "uint256",
          "name": "waktu",
          "type": "uint256"
        },
        {
          "indexed": false,
          "internalType": "uint256[]",
          "name": "dropPoints",
          "type": "uint256[]"
        }
      ],
      "name": "SampahDitambahkan",
      "type": "event"
    },
    {
      "anonymous": false,
      "inputs": [
        {
          "indexed": false,
          "internalType": "address",
          "name": "userAddress",
          "type": "address"
        },
        {
          "indexed": false,
          "internalType": "uint256",
          "name": "idSampah",
          "type": "uint256"
        },
        {
          "indexed": false,
          "internalType": "string",
          "name": "jenisSampah",
          "type": "string"
        },
        {
          "indexed": false,
          "internalType": "uint256",
          "name": "berat",
          "type": "uint256"
        },
        {
          "indexed": false,
          "internalType": "uint256",
          "name": "waktu",
          "type": "uint256"
        },
        {
          "indexed": false,
          "internalType": "uint256[]",
          "name": "dropPoints",
          "type": "uint256[]"
        }
      ],
      "name": "SampahDitambahkanKePenampung",
      "type": "event"
    },
    {
      "inputs": [
        {
          "internalType": "uint256",
          "name": "_idSampah",
          "type": "uint256"
        }
      ],
      "name": "bersihkanDataSampah",
      "outputs": [],
      "stateMutability": "nonpayable",
      "type": "function"
    },
    {
      "inputs": [
        {
          "internalType": "uint256",
          "name": "",
          "type": "uint256"
        }
      ],
      "name": "dataPenampungan",
      "outputs": [
        {
          "internalType": "address",
          "name": "userAddress",
          "type": "address"
        },
        {
          "internalType": "string",
          "name": "namaPengguna",
          "type": "string"
        },
        {
          "internalType": "string",
          "name": "emailPengguna",
          "type": "string"
        },
        {
          "internalType": "uint256",
          "name": "idSampah",
          "type": "uint256"
        },
        {
          "internalType": "string",
          "name": "jenisSampah",
          "type": "string"
        },
        {
          "internalType": "uint256",
          "name": "berat",
          "type": "uint256"
        },
        {
          "internalType": "uint256",
          "name": "waktu",
          "type": "uint256"
        },
        {
          "internalType": "bool",
          "name": "sudahDivalidasi",
          "type": "bool"
        }
      ],
      "stateMutability": "view",
      "type": "function"
    },
    {
      "inputs": [],
      "name": "getAllDataPenampungan",
      "outputs": [
        {
          "components": [
            {
              "internalType": "address",
              "name": "userAddress",
              "type": "address"
            },
            {
              "internalType": "string",
              "name": "namaPengguna",
              "type": "string"
            },
            {
              "internalType": "string",
              "name": "emailPengguna",
              "type": "string"
            },
            {
              "internalType": "uint256",
              "name": "idSampah",
              "type": "uint256"
            },
            {
              "internalType": "string",
              "name": "jenisSampah",
              "type": "string"
            },
            {
              "internalType": "uint256",
              "name": "berat",
              "type": "uint256"
            },
            {
              "internalType": "uint256",
              "name": "waktu",
              "type": "uint256"
            },
            {
              "internalType": "uint256[]",
              "name": "dropPoints",
              "type": "uint256[]"
            },
            {
              "internalType": "bool",
              "name": "sudahDivalidasi",
              "type": "bool"
            }
          ],
          "internalType": "struct DropPointT.DataPenampungan[]",
          "name": "",
          "type": "tuple[]"
        }
      ],
      "stateMutability": "view",
      "type": "function"
    },
    {
      "inputs": [],
      "name": "getAllDataSampahList",
      "outputs": [
        {
          "components": [
            {
              "internalType": "address",
              "name": "userAddress",
              "type": "address"
            },
            {
              "internalType": "string",
              "name": "namaPengguna",
              "type": "string"
            },
            {
              "internalType": "string",
              "name": "emailPengguna",
              "type": "string"
            },
            {
              "internalType": "uint256",
              "name": "idSampah",
              "type": "uint256"
            },
            {
              "internalType": "string",
              "name": "jenisSampah",
              "type": "string"
            },
            {
              "internalType": "uint256",
              "name": "berat",
              "type": "uint256"
            },
            {
              "internalType": "uint256",
              "name": "waktu",
              "type": "uint256"
            },
            {
              "internalType": "uint256[]",
              "name": "dropPoints",
              "type": "uint256[]"
            }
          ],
          "internalType": "struct DropPointT.DataSampah[]",
          "name": "",
          "type": "tuple[]"
        }
      ],
      "stateMutability": "view",
      "type": "function"
    },
    {
      "inputs": [
        {
          "internalType": "uint256",
          "name": "_idSampah",
          "type": "uint256"
        }
      ],
      "name": "getDataSampahById",
      "outputs": [
        {
          "components": [
            {
              "internalType": "address",
              "name": "userAddress",
              "type": "address"
            },
            {
              "internalType": "string",
              "name": "namaPengguna",
              "type": "string"
            },
            {
              "internalType": "string",
              "name": "emailPengguna",
              "type": "string"
            },
            {
              "internalType": "uint256",
              "name": "idSampah",
              "type": "uint256"
            },
            {
              "internalType": "string",
              "name": "jenisSampah",
              "type": "string"
            },
            {
              "internalType": "uint256",
              "name": "berat",
              "type": "uint256"
            },
            {
              "internalType": "uint256",
              "name": "waktu",
              "type": "uint256"
            },
            {
              "internalType": "uint256[]",
              "name": "dropPoints",
              "type": "uint256[]"
            }
          ],
          "internalType": "struct DropPointT.DataSampah",
          "name": "",
          "type": "tuple"
        }
      ],
      "stateMutability": "view",
      "type": "function"
    },
    {
      "inputs": [
        {
          "internalType": "string",
          "name": "_namaPengguna",
          "type": "string"
        },
        {
          "internalType": "string",
          "name": "_emailPengguna",
          "type": "string"
        },
        {
          "internalType": "string",
          "name": "_jenisSampah",
          "type": "string"
        },
        {
          "internalType": "uint256",
          "name": "_berat",
          "type": "uint256"
        },
        {
          "internalType": "uint256[]",
          "name": "_dropPoints",
          "type": "uint256[]"
        }
      ],
      "name": "inputDataPenampungan",
      "outputs": [],
      "stateMutability": "nonpayable",
      "type": "function"
    },
    {
      "inputs": [],
      "name": "jumlahsampah",
      "outputs": [
        {
          "internalType": "uint256",
          "name": "",
          "type": "uint256"
        }
      ],
      "stateMutability": "view",
      "type": "function"
    },
    {
      "inputs": [
        {
          "internalType": "uint256",
          "name": "_idSampah",
          "type": "uint256"
        }
      ],
      "name": "kirimKeDropPointSelanjutnya",
      "outputs": [],
      "stateMutability": "nonpayable",
      "type": "function"
    },
    {
      "inputs": [],
      "name": "owner",
      "outputs": [
        {
          "internalType": "address",
          "name": "",
          "type": "address"
        }
      ],
      "stateMutability": "view",
      "type": "function"
    },
    {
      "inputs": [
        {
          "internalType": "uint256",
          "name": "",
          "type": "uint256"
        }
      ],
      "name": "sampahList",
      "outputs": [
        {
          "internalType": "address",
          "name": "userAddress",
          "type": "address"
        },
        {
          "internalType": "string",
          "name": "namaPengguna",
          "type": "string"
        },
        {
          "internalType": "string",
          "name": "emailPengguna",
          "type": "string"
        },
        {
          "internalType": "uint256",
          "name": "idSampah",
          "type": "uint256"
        },
        {
          "internalType": "string",
          "name": "jenisSampah",
          "type": "string"
        },
        {
          "internalType": "uint256",
          "name": "berat",
          "type": "uint256"
        },
        {
          "internalType": "uint256",
          "name": "waktu",
          "type": "uint256"
        }
      ],
      "stateMutability": "view",
      "type": "function"
    },
    {
      "inputs": [
        {
          "internalType": "address",
          "name": "newOwner",
          "type": "address"
        }
      ],
      "name": "transferOwnership",
      "outputs": [],
      "stateMutability": "nonpayable",
      "type": "function"
    },
    {
      "inputs": [
        {
          "internalType": "uint256",
          "name": "_idSampah",
          "type": "uint256"
        }
      ],
      "name": "verifikasiDataSampah",
      "outputs": [],
      "stateMutability": "nonpayable",
      "type": "function"
    }
  ],
  "transactionHash": "0x2199385de7fcb8f324aee85dc532da20388e2ae81f40812ba151a282d9f1e894",
  "args": [],
  "numDeployments": 1,
  "solcInputHash": "d0e66446fd20582d64d6745398e269ed",
  "bytecode": "0x60806040526001805534801561001457600080fd5b5061001e33610023565b610073565b600080546001600160a01b038381166001600160a01b0319831681178455604051919092169283917f8be0079c531659141344cd1fd0a4f28419497f9722a3daafe3b4186f6b6457e09190a35050565b6122f6806100826000396000f3fe608060405234801561001057600080fd5b50600436106100b45760003560e01c80639b140ba8116100715780639b140ba814610160578063ad0eb88614610173578063d1200c8514610186578063e1d7e40c1461019b578063f13636a6146101b1578063f2fde38b146101d857600080fd5b806314e43416146100b95780634d74809e146100d75780635e88e11d146100ec5780636bd15aeb1461010c5780637ce04214146101325780638da5cb5b14610145575b600080fd5b6100c16101eb565b6040516100ce9190611b9e565b60405180910390f35b6100ea6100e5366004611c00565b6104f9565b005b6100ff6100fa366004611c00565b610b13565b6040516100ce9190611c19565b61011f61011a366004611c00565b610d7b565b6040516100ce9796959493929190611c33565b6100ea610140366004611c00565b610f58565b6000546040516001600160a01b0390911681526020016100ce565b6100ea61016e366004611d51565b610fdf565b6100ea610181366004611c00565b611173565b61018e6112e6565b6040516100ce9190611e6c565b6101a361164f565b6040519081526020016100ce565b6101c46101bf366004611c00565b611673565b6040516100ce989796959493929190611f75565b6100ea6101e6366004611feb565b61185b565b60606000600180546101fd919061202a565b67ffffffffffffffff81111561021557610215611c9a565b60405190808252806020026020018201604052801561024e57816020015b61023b61197d565b8152602001906001900390816102335790505b50905060015b6001548110156104f3576000818152600360209081526040918290208251610100810190935280546001600160a01b03168352600181018054919284019161029b90612043565b80601f01602080910402602001604051908101604052809291908181526020018280546102c790612043565b80156103145780601f106102e957610100808354040283529160200191610314565b820191906000526020600020905b8154815290600101906020018083116102f757829003601f168201915b5050505050815260200160028201805461032d90612043565b80601f016020809104026020016040519081016040528092919081815260200182805461035990612043565b80156103a65780601f1061037b576101008083540402835291602001916103a6565b820191906000526020600020905b81548152906001019060200180831161038957829003601f168201915b50505050508152602001600382015481526020016004820180546103c990612043565b80601f01602080910402602001604051908101604052809291908181526020018280546103f590612043565b80156104425780601f1061041757610100808354040283529160200191610442565b820191906000526020600020905b81548152906001019060200180831161042557829003601f168201915b505050505081526020016005820154815260200160068201548152602001600782018054806020026020016040519081016040528092919081815260200182805480156104ae57602002820191906000526020600020905b81548152602001906001019080831161049a575b505050505081525050826001836104c5919061202a565b815181106104d5576104d5612077565b602002602001018190525080806104eb9061208d565b915050610254565b50919050565b6105016118d1565b60008181526002602052604090206008015460ff16156105605760405162461bcd60e51b81526020600482015260156024820152744461746120737564616820646976616c696461736960581b60448201526064015b60405180910390fd5b604080516101008101825260008381526002602081815293822080546001600160a01b03168452918590528352600101805491928301916105a090612043565b80601f01602080910402602001604051908101604052809291908181526020018280546105cc90612043565b80156106195780601f106105ee57610100808354040283529160200191610619565b820191906000526020600020905b8154815290600101906020018083116105fc57829003601f168201915b5050505050815260200160026000848152602001908152602001600020600201805461064490612043565b80601f016020809104026020016040519081016040528092919081815260200182805461067090612043565b80156106bd5780601f10610692576101008083540402835291602001916106bd565b820191906000526020600020905b8154815290600101906020018083116106a057829003601f168201915b505050505081526020018281526020016002600084815260200190815260200160002060040180546106ee90612043565b80601f016020809104026020016040519081016040528092919081815260200182805461071a90612043565b80156107675780601f1061073c57610100808354040283529160200191610767565b820191906000526020600020905b81548152906001019060200180831161074a57829003601f168201915b50505091835250506000838152600260208181526040808420600581015483870152600681015482870152938790529181526007909201805482518185028101850190935280835260609094019391929091908301828280156107e957602002820191906000526020600020905b8154815260200190600101908083116107d5575b5050509190925250506000828152600360209081526040909120825181546001600160a01b0319166001600160a01b0390911617815590820151600182019061083290826120f5565b506040820151600282019061084790826120f5565b50606082015160038201556080820151600482019061086690826120f5565b5060a0820151600582015560c0820151600682015560e082015180516108969160078401916020909101906119cb565b505050600081815260036020526040812060010180546108b590612043565b9050116109045760405162461bcd60e51b815260206004820152601760248201527f4e616d6120546964616b20426f6c6568204b6f736f6e670000000000000000006044820152606401610557565b6000818152600360205260408120600201805461092090612043565b90501161096f5760405162461bcd60e51b815260206004820152601860248201527f456d61696c20546964616b20426f6c6568204b6f736f6e6700000000000000006044820152606401610557565b6000818152600360205260409020600501546109db5760405162461bcd60e51b815260206004820152602560248201527f42657261742073616d706168206861727573206c656269682062657361722064604482015264061726920360dc1b6064820152608401610557565b600081815260036020526040812060040180546109f790612043565b905011610a465760405162461bcd60e51b815260206004820152601f60248201527f4a656e69732073616d70616820746964616b20626f6c6568206b6f736f6e67006044820152606401610557565b60008181526002602052604090819020600801805460ff19166001179055517f9f81da346cbd8eaf6de96dc9bfb32263a1cf8376f7e7209899f851d54de6de6590610a949083815260200190565b60405180910390a16000818152600260205260409081902080546005820154600683015493517fcbf69a5c8c460e4e72f038b0ae7b43036b6ecaa53b70f2b98efc9665cd24347a94610aff946001600160a01b039094169387936004820193909291600701906121ea565b60405180910390a1610b1081610f58565b50565b610b1b61197d565b6000828152600360209081526040918290208251610100810190935280546001600160a01b031683526001810180549192840191610b5890612043565b80601f0160208091040260200160405190810160405280929190818152602001828054610b8490612043565b8015610bd15780601f10610ba657610100808354040283529160200191610bd1565b820191906000526020600020905b815481529060010190602001808311610bb457829003601f168201915b50505050508152602001600282018054610bea90612043565b80601f0160208091040260200160405190810160405280929190818152602001828054610c1690612043565b8015610c635780601f10610c3857610100808354040283529160200191610c63565b820191906000526020600020905b815481529060010190602001808311610c4657829003601f168201915b5050505050815260200160038201548152602001600482018054610c8690612043565b80601f0160208091040260200160405190810160405280929190818152602001828054610cb290612043565b8015610cff5780601f10610cd457610100808354040283529160200191610cff565b820191906000526020600020905b815481529060010190602001808311610ce257829003601f168201915b50505050508152602001600582015481526020016006820154815260200160078201805480602002602001604051908101604052809291908181526020018280548015610d6b57602002820191906000526020600020905b815481526020019060010190808311610d57575b5050505050815250509050919050565b600360205260009081526040902080546001820180546001600160a01b039092169291610da790612043565b80601f0160208091040260200160405190810160405280929190818152602001828054610dd390612043565b8015610e205780601f10610df557610100808354040283529160200191610e20565b820191906000526020600020905b815481529060010190602001808311610e0357829003601f168201915b505050505090806002018054610e3590612043565b80601f0160208091040260200160405190810160405280929190818152602001828054610e6190612043565b8015610eae5780601f10610e8357610100808354040283529160200191610eae565b820191906000526020600020905b815481529060010190602001808311610e9157829003601f168201915b505050505090806003015490806004018054610ec990612043565b80601f0160208091040260200160405190810160405280929190818152602001828054610ef590612043565b8015610f425780601f10610f1757610100808354040283529160200191610f42565b820191906000526020600020905b815481529060010190602001808311610f2557829003601f168201915b5050505050908060050154908060060154905087565b610f606118d1565b600081815260026020526040812080546001600160a01b031916815590610f8a6001830182611a16565b610f98600283016000611a16565b6003820160009055600482016000610fb09190611a16565b60058201600090556006820160009055600782016000610fd09190611a50565b50600801805460ff1916905550565b60018054339181906000610ff28361208d565b909155505060408051610120810182526001600160a01b03848116825260208083018b81528385018b905260608401869052608084018a905260a084018990524260c085015260e08401889052600061010085018190528681526002909252939020825181546001600160a01b03191692169190911781559151909190600182019061107e90826120f5565b506040820151600282019061109390826120f5565b5060608201516003820155608082015160048201906110b290826120f5565b5060a0820151600582015560c0820151600682015560e082015180516110e29160078401916020909101906119cb565b5061010091909101516008909101805460ff19169115159190911790556000818152600260205260409081902080546005820154600683015493517f226f15bbdecfae64eff394753791775d1a13ce1ed030a69361983ef73789b48394611162946001600160a01b039094169387936004820193909291600701906121ea565b60405180910390a150505050505050565b61117b6118d1565b6000818152600260205260409020600801805460ff19166001179055600081815260036020819052604090912060070154106112115760405162461bcd60e51b815260206004820152602f60248201527f53616d7061682074656c6168206d656e6361706169206261746173206d616b7360448201526e1a5b585b08191c9bdc081c1bda5b9d608a1b6064820152608401610557565b600081815260036020526040812060070180546112309060019061202a565b8154811061124057611240612077565b600091825260208220015491506112588260016122ad565b60008481526003602090815260408083206007810180546001810182558186529385209093018590559287905242600684018190558354600585015492519596507f8294bfafecfc1ab74d8eb15927eaac0e551c0c4c01baf279acf01baf37afe328956112d9956001600160a01b03909216948a94600490930193916121ea565b60405180910390a1505050565b60606000600180546112f8919061202a565b67ffffffffffffffff81111561131057611310611c9a565b60405190808252806020026020018201604052801561139b57816020015b61138860405180610120016040528060006001600160a01b03168152602001606081526020016060815260200160008152602001606081526020016000815260200160008152602001606081526020016000151581525090565b81526020019060019003908161132e5790505b50905060015b6001548110156104f3576000818152600260209081526040918290208251610120810190935280546001600160a01b0316835260018101805491928401916113e890612043565b80601f016020809104026020016040519081016040528092919081815260200182805461141490612043565b80156114615780601f1061143657610100808354040283529160200191611461565b820191906000526020600020905b81548152906001019060200180831161144457829003601f168201915b5050505050815260200160028201805461147a90612043565b80601f01602080910402602001604051908101604052809291908181526020018280546114a690612043565b80156114f35780601f106114c8576101008083540402835291602001916114f3565b820191906000526020600020905b8154815290600101906020018083116114d657829003601f168201915b505050505081526020016003820154815260200160048201805461151690612043565b80601f016020809104026020016040519081016040528092919081815260200182805461154290612043565b801561158f5780601f106115645761010080835404028352916020019161158f565b820191906000526020600020905b81548152906001019060200180831161157257829003601f168201915b505050505081526020016005820154815260200160068201548152602001600782018054806020026020016040519081016040528092919081815260200182805480156115fb57602002820191906000526020600020905b8154815260200190600101908083116115e7575b50505091835250506008919091015460ff1615156020909101528261162160018461202a565b8151811061163157611631612077565b602002602001018190525080806116479061208d565b9150506113a1565b600060018054116116605750600090565b6001805461166e919061202a565b905090565b600260205260009081526040902080546001820180546001600160a01b03909216929161169f90612043565b80601f01602080910402602001604051908101604052809291908181526020018280546116cb90612043565b80156117185780601f106116ed57610100808354040283529160200191611718565b820191906000526020600020905b8154815290600101906020018083116116fb57829003601f168201915b50505050509080600201805461172d90612043565b80601f016020809104026020016040519081016040528092919081815260200182805461175990612043565b80156117a65780601f1061177b576101008083540402835291602001916117a6565b820191906000526020600020905b81548152906001019060200180831161178957829003601f168201915b5050505050908060030154908060040180546117c190612043565b80601f01602080910402602001604051908101604052809291908181526020018280546117ed90612043565b801561183a5780601f1061180f5761010080835404028352916020019161183a565b820191906000526020600020905b81548152906001019060200180831161181d57829003601f168201915b50505050600583015460068401546008909401549293909290915060ff1688565b6118636118d1565b6001600160a01b0381166118c85760405162461bcd60e51b815260206004820152602660248201527f4f776e61626c653a206e6577206f776e657220697320746865207a65726f206160448201526564647265737360d01b6064820152608401610557565b610b108161192d565b6000546001600160a01b0316331461192b5760405162461bcd60e51b815260206004820181905260248201527f4f776e61626c653a2063616c6c6572206973206e6f7420746865206f776e65726044820152606401610557565b565b600080546001600160a01b038381166001600160a01b0319831681178455604051919092169283917f8be0079c531659141344cd1fd0a4f28419497f9722a3daafe3b4186f6b6457e09190a35050565b60405180610100016040528060006001600160a01b03168152602001606081526020016060815260200160008152602001606081526020016000815260200160008152602001606081525090565b828054828255906000526020600020908101928215611a06579160200282015b82811115611a065782518255916020019190600101906119eb565b50611a12929150611a6a565b5090565b508054611a2290612043565b6000825580601f10611a32575050565b601f016020900490600052602060002090810190610b109190611a6a565b5080546000825590600052602060002090810190610b1091905b5b80821115611a125760008155600101611a6b565b6000815180845260005b81811015611aa557602081850181015186830182015201611a89565b506000602082860101526020601f19601f83011685010191505092915050565b600081518084526020808501945080840160005b83811015611af557815187529582019590820190600101611ad9565b509495945050505050565b80516001600160a01b0316825260006101006020830151816020860152611b2982860182611a7f565b91505060408301518482036040860152611b438282611a7f565b9150506060830151606085015260808301518482036080860152611b678282611a7f565b91505060a083015160a085015260c083015160c085015260e083015184820360e0860152611b958282611ac5565b95945050505050565b6000602080830181845280855180835260408601915060408160051b870101925083870160005b82811015611bf357603f19888603018452611be1858351611b00565b94509285019290850190600101611bc5565b5092979650505050505050565b600060208284031215611c1257600080fd5b5035919050565b602081526000611c2c6020830184611b00565b9392505050565b6001600160a01b038816815260e060208201819052600090611c5790830189611a7f565b8281036040840152611c698189611a7f565b90508660608401528281036080840152611c838187611a7f565b60a0840195909552505060c0015295945050505050565b634e487b7160e01b600052604160045260246000fd5b604051601f8201601f1916810167ffffffffffffffff81118282101715611cd957611cd9611c9a565b604052919050565b600082601f830112611cf257600080fd5b813567ffffffffffffffff811115611d0c57611d0c611c9a565b611d1f601f8201601f1916602001611cb0565b818152846020838601011115611d3457600080fd5b816020850160208301376000918101602001919091529392505050565b600080600080600060a08688031215611d6957600080fd5b853567ffffffffffffffff80821115611d8157600080fd5b611d8d89838a01611ce1565b9650602091508188013581811115611da457600080fd5b611db08a828b01611ce1565b965050604088013581811115611dc557600080fd5b611dd18a828b01611ce1565b95505060608801359350608088013581811115611ded57600080fd5b8801601f81018a13611dfe57600080fd5b803582811115611e1057611e10611c9a565b8060051b9250611e21848401611cb0565b818152928201840192848101908c851115611e3b57600080fd5b928501925b84841015611e5957833582529285019290850190611e40565b8096505050505050509295509295909350565b60006020808301818452808551808352604092508286019150828160051b87010184880160005b83811015611f6757888303603f19018552815180516001600160a01b0316845261012088820151818a870152611ecb82870182611a7f565b9150508782015185820389870152611ee38282611a7f565b915050606080830151818701525060808083015186830382880152611f088382611a7f565b9250505060a080830151818701525060c080830151818701525060e08083015186830382880152611f398382611ac5565b92505050610100808301519250611f538187018415159052565b509588019593505090860190600101611e93565b509098975050505050505050565b6001600160a01b038916815261010060208201819052600090611f9a8382018b611a7f565b90508281036040840152611fae818a611a7f565b90508760608401528281036080840152611fc88188611a7f565b60a0840196909652505060c0810192909252151560e09091015295945050505050565b600060208284031215611ffd57600080fd5b81356001600160a01b0381168114611c2c57600080fd5b634e487b7160e01b600052601160045260246000fd5b8181038181111561203d5761203d612014565b92915050565b600181811c9082168061205757607f821691505b6020821081036104f357634e487b7160e01b600052602260045260246000fd5b634e487b7160e01b600052603260045260246000fd5b60006001820161209f5761209f612014565b5060010190565b601f8211156120f057600081815260208120601f850160051c810160208610156120cd5750805b601f850160051c820191505b818110156120ec578281556001016120d9565b5050505b505050565b815167ffffffffffffffff81111561210f5761210f611c9a565b6121238161211d8454612043565b846120a6565b602080601f83116001811461215857600084156121405750858301515b600019600386901b1c1916600185901b1785556120ec565b600085815260208120601f198616915b8281101561218757888601518255948401946001909101908401612168565b50858210156121a55787850151600019600388901b60f8161c191681555b5050505050600190811b01905550565b6000815480845260208085019450836000528060002060005b83811015611af5578154875295820195600191820191016121ce565b60018060a01b038716815260006020878184015260c060408401526000875461221281612043565b8060c087015260e0600180841660008114612234576001811461224e5761227c565b60ff1985168984015283151560051b89018301955061227c565b8c6000528660002060005b858110156122745781548b8201860152908301908801612259565b8a0184019650505b505050505086606085015285608085015283810360a085015261229f81866121b5565b9a9950505050505050505050565b8082018082111561203d5761203d61201456fea264697066735822122017098c7800e9a8b36e1dfde146b89f905ba58965333a7d03d533447d83d4333864736f6c63430008130033",
  "devdoc": {
    "kind": "dev",
    "methods": {
      "owner()": {
        "details": "Returns the address of the current owner."
      },
      "transferOwnership(address)": {
        "details": "Transfers ownership of the contract to a new account (`newOwner`). Can only be called by the current owner."
      }
    },
    "version": 1
  },
  "userdoc": {
    "kind": "user",
    "methods": {},
    "version": 1
  },
  "storageLayout": {
    "storage": [
      {
        "astId": 7,
        "contract": "contracts/DropPointT.sol:DropPointT",
        "label": "_owner",
        "offset": 0,
        "slot": "0",
        "type": "t_address"
      },
      {
        "astId": 128,
        "contract": "contracts/DropPointT.sol:DropPointT",
        "label": "counterSampah",
        "offset": 0,
        "slot": "1",
        "type": "t_uint256"
      },
      {
        "astId": 171,
        "contract": "contracts/DropPointT.sol:DropPointT",
        "label": "dataPenampungan",
        "offset": 0,
        "slot": "2",
        "type": "t_mapping(t_uint256,t_struct(DataPenampungan)148_storage)"
      },
      {
        "astId": 176,
        "contract": "contracts/DropPointT.sol:DropPointT",
        "label": "sampahList",
        "offset": 0,
        "slot": "3",
        "type": "t_mapping(t_uint256,t_struct(DataSampah)166_storage)"
      }
    ],
    "types": {
      "t_address": {
        "encoding": "inplace",
        "label": "address",
        "numberOfBytes": "20"
      },
      "t_array(t_uint256)dyn_storage": {
        "base": "t_uint256",
        "encoding": "dynamic_array",
        "label": "uint256[]",
        "numberOfBytes": "32"
      },
      "t_bool": {
        "encoding": "inplace",
        "label": "bool",
        "numberOfBytes": "1"
      },
      "t_mapping(t_uint256,t_struct(DataPenampungan)148_storage)": {
        "encoding": "mapping",
        "key": "t_uint256",
        "label": "mapping(uint256 => struct DropPointT.DataPenampungan)",
        "numberOfBytes": "32",
        "value": "t_struct(DataPenampungan)148_storage"
      },
      "t_mapping(t_uint256,t_struct(DataSampah)166_storage)": {
        "encoding": "mapping",
        "key": "t_uint256",
        "label": "mapping(uint256 => struct DropPointT.DataSampah)",
        "numberOfBytes": "32",
        "value": "t_struct(DataSampah)166_storage"
      },
      "t_string_storage": {
        "encoding": "bytes",
        "label": "string",
        "numberOfBytes": "32"
      },
      "t_struct(DataPenampungan)148_storage": {
        "encoding": "inplace",
        "label": "struct DropPointT.DataPenampungan",
        "members": [
          {
            "astId": 130,
            "contract": "contracts/DropPointT.sol:DropPointT",
            "label": "userAddress",
            "offset": 0,
            "slot": "0",
            "type": "t_address"
          },
          {
            "astId": 132,
            "contract": "contracts/DropPointT.sol:DropPointT",
            "label": "namaPengguna",
            "offset": 0,
            "slot": "1",
            "type": "t_string_storage"
          },
          {
            "astId": 134,
            "contract": "contracts/DropPointT.sol:DropPointT",
            "label": "emailPengguna",
            "offset": 0,
            "slot": "2",
            "type": "t_string_storage"
          },
          {
            "astId": 136,
            "contract": "contracts/DropPointT.sol:DropPointT",
            "label": "idSampah",
            "offset": 0,
            "slot": "3",
            "type": "t_uint256"
          },
          {
            "astId": 138,
            "contract": "contracts/DropPointT.sol:DropPointT",
            "label": "jenisSampah",
            "offset": 0,
            "slot": "4",
            "type": "t_string_storage"
          },
          {
            "astId": 140,
            "contract": "contracts/DropPointT.sol:DropPointT",
            "label": "berat",
            "offset": 0,
            "slot": "5",
            "type": "t_uint256"
          },
          {
            "astId": 142,
            "contract": "contracts/DropPointT.sol:DropPointT",
            "label": "waktu",
            "offset": 0,
            "slot": "6",
            "type": "t_uint256"
          },
          {
            "astId": 145,
            "contract": "contracts/DropPointT.sol:DropPointT",
            "label": "dropPoints",
            "offset": 0,
            "slot": "7",
            "type": "t_array(t_uint256)dyn_storage"
          },
          {
            "astId": 147,
            "contract": "contracts/DropPointT.sol:DropPointT",
            "label": "sudahDivalidasi",
            "offset": 0,
            "slot": "8",
            "type": "t_bool"
          }
        ],
        "numberOfBytes": "288"
      },
      "t_struct(DataSampah)166_storage": {
        "encoding": "inplace",
        "label": "struct DropPointT.DataSampah",
        "members": [
          {
            "astId": 150,
            "contract": "contracts/DropPointT.sol:DropPointT",
            "label": "userAddress",
            "offset": 0,
            "slot": "0",
            "type": "t_address"
          },
          {
            "astId": 152,
            "contract": "contracts/DropPointT.sol:DropPointT",
            "label": "namaPengguna",
            "offset": 0,
            "slot": "1",
            "type": "t_string_storage"
          },
          {
            "astId": 154,
            "contract": "contracts/DropPointT.sol:DropPointT",
            "label": "emailPengguna",
            "offset": 0,
            "slot": "2",
            "type": "t_string_storage"
          },
          {
            "astId": 156,
            "contract": "contracts/DropPointT.sol:DropPointT",
            "label": "idSampah",
            "offset": 0,
            "slot": "3",
            "type": "t_uint256"
          },
          {
            "astId": 158,
            "contract": "contracts/DropPointT.sol:DropPointT",
            "label": "jenisSampah",
            "offset": 0,
            "slot": "4",
            "type": "t_string_storage"
          },
          {
            "astId": 160,
            "contract": "contracts/DropPointT.sol:DropPointT",
            "label": "berat",
            "offset": 0,
            "slot": "5",
            "type": "t_uint256"
          },
          {
            "astId": 162,
            "contract": "contracts/DropPointT.sol:DropPointT",
            "label": "waktu",
            "offset": 0,
            "slot": "6",
            "type": "t_uint256"
          },
          {
            "astId": 165,
            "contract": "contracts/DropPointT.sol:DropPointT",
            "label": "dropPoints",
            "offset": 0,
            "slot": "7",
            "type": "t_array(t_uint256)dyn_storage"
          }
        ],
        "numberOfBytes": "256"
      },
      "t_uint256": {
        "encoding": "inplace",
        "label": "uint256",
        "numberOfBytes": "32"
      }
    }
  }
}